{"abi":[{"type":"function","name":"addSupportedNft","inputs":[{"name":"_nft","type":"address","internalType":"address"},{"name":"_amount","type":"uint256","internalType":"uint256"}],"outputs":[],"stateMutability":"nonpayable"},{"type":"function","name":"stakeNft","inputs":[{"name":"_nft","type":"address","internalType":"address"},{"name":"tokenId","type":"uint256","internalType":"uint256"}],"outputs":[],"stateMutability":"nonpayable"},{"type":"error","name":"NoZeroAddress","inputs":[]},{"type":"error","name":"NotDiamondOwner","inputs":[]}],"bytecode":{"object":"0x6080604052348015600f57600080fd5b506101658061001f6000396000f3fe608060405234801561001057600080fd5b50600436106100365760003560e01c806329acf6531461003b5780633660130b14610050575b600080fd5b61004e6100493660046100f7565b610062565b005b61004e61005e3660046100f7565b5050565b7fc8fcad8db84d3cc18b4c41d551ea0ee66dd599cde068d998e57d5e09332c131c6001600160a01b0383166100aa5760405163ddbadd5f60e01b815260040160405180910390fd5b60048101546001600160a01b031633146100d757604051630305808160e41b815260040160405180910390fd5b6001600160a01b039092166000908152600b909201602052604090912055565b6000806040838503121561010a57600080fd5b82356001600160a01b038116811461012157600080fd5b94602093909301359350505056fea2646970667358221220d3c4d9cde6e09678c9227a124fc600b31a55bf318e15291d5fcbea3c07fd772564736f6c634300081c0033","linkReferences":{}},"methodIdentifiers":{"addSupportedNft(address,uint256)":"29acf653","stakeNft(address,uint256)":"3660130b"},"id":4}