{"abi":[{"type":"function","name":"approve","inputs":[{"name":"to","type":"address","internalType":"address"},{"name":"tokenId","type":"uint256","internalType":"uint256"}],"outputs":[],"stateMutability":"nonpayable"},{"type":"function","name":"balanceOf","inputs":[{"name":"owner","type":"address","internalType":"address"}],"outputs":[{"name":"","type":"uint256","internalType":"uint256"}],"stateMutability":"view"},{"type":"function","name":"getApproved","inputs":[{"name":"tokenId","type":"uint256","internalType":"uint256"}],"outputs":[{"name":"","type":"address","internalType":"address"}],"stateMutability":"view"},{"type":"function","name":"initialiseFacet","inputs":[{"name":"_name","type":"string","internalType":"string"},{"name":"_symbol","type":"string","internalType":"string"}],"outputs":[],"stateMutability":"nonpayable"},{"type":"function","name":"isApprovedForAll","inputs":[{"name":"owner","type":"address","internalType":"address"},{"name":"operator","type":"address","internalType":"address"}],"outputs":[{"name":"","type":"bool","internalType":"bool"}],"stateMutability":"view"},{"type":"function","name":"name","inputs":[],"outputs":[{"name":"","type":"string","internalType":"string"}],"stateMutability":"view"},{"type":"function","name":"ownerOf","inputs":[{"name":"tokenId","type":"uint256","internalType":"uint256"}],"outputs":[{"name":"","type":"address","internalType":"address"}],"stateMutability":"view"},{"type":"function","name":"safeMint","inputs":[{"name":"to","type":"address","internalType":"address"},{"name":"tokenId","type":"uint256","internalType":"uint256"}],"outputs":[],"stateMutability":"nonpayable"},{"type":"function","name":"safeTransferFrom","inputs":[{"name":"from","type":"address","internalType":"address"},{"name":"to","type":"address","internalType":"address"},{"name":"tokenId","type":"uint256","internalType":"uint256"}],"outputs":[],"stateMutability":"nonpayable"},{"type":"function","name":"safeTransferFrom","inputs":[{"name":"from","type":"address","internalType":"address"},{"name":"to","type":"address","internalType":"address"},{"name":"tokenId","type":"uint256","internalType":"uint256"},{"name":"data","type":"bytes","internalType":"bytes"}],"outputs":[],"stateMutability":"nonpayable"},{"type":"function","name":"setApprovalForAll","inputs":[{"name":"operator","type":"address","internalType":"address"},{"name":"approved","type":"bool","internalType":"bool"}],"outputs":[],"stateMutability":"nonpayable"},{"type":"function","name":"supportsInterface","inputs":[{"name":"interfaceId","type":"bytes4","internalType":"bytes4"}],"outputs":[{"name":"","type":"bool","internalType":"bool"}],"stateMutability":"view"},{"type":"function","name":"symbol","inputs":[],"outputs":[{"name":"","type":"string","internalType":"string"}],"stateMutability":"view"},{"type":"function","name":"tokenURI","inputs":[{"name":"tokenId","type":"uint256","internalType":"uint256"}],"outputs":[{"name":"","type":"string","internalType":"string"}],"stateMutability":"view"},{"type":"function","name":"transferFrom","inputs":[{"name":"from","type":"address","internalType":"address"},{"name":"to","type":"address","internalType":"address"},{"name":"tokenId","type":"uint256","internalType":"uint256"}],"outputs":[],"stateMutability":"nonpayable"},{"type":"event","name":"Approval","inputs":[{"name":"owner","type":"address","indexed":true,"internalType":"address"},{"name":"approved","type":"address","indexed":true,"internalType":"address"},{"name":"tokenId","type":"uint256","indexed":true,"internalType":"uint256"}],"anonymous":false},{"type":"event","name":"ApprovalForAll","inputs":[{"name":"owner","type":"address","indexed":true,"internalType":"address"},{"name":"operator","type":"address","indexed":true,"internalType":"address"},{"name":"approved","type":"bool","indexed":false,"internalType":"bool"}],"anonymous":false},{"type":"event","name":"Transfer","inputs":[{"name":"from","type":"address","indexed":true,"internalType":"address"},{"name":"to","type":"address","indexed":true,"internalType":"address"},{"name":"tokenId","type":"uint256","indexed":true,"internalType":"uint256"}],"anonymous":false},{"type":"error","name":"ERC721IncorrectOwner","inputs":[{"name":"sender","type":"address","internalType":"address"},{"name":"tokenId","type":"uint256","internalType":"uint256"},{"name":"owner","type":"address","internalType":"address"}]},{"type":"error","name":"ERC721InsufficientApproval","inputs":[{"name":"operator","type":"address","internalType":"address"},{"name":"tokenId","type":"uint256","internalType":"uint256"}]},{"type":"error","name":"ERC721InvalidApprover","inputs":[{"name":"approver","type":"address","internalType":"address"}]},{"type":"error","name":"ERC721InvalidOperator","inputs":[{"name":"operator","type":"address","internalType":"address"}]},{"type":"error","name":"ERC721InvalidOwner","inputs":[{"name":"owner","type":"address","internalType":"address"}]},{"type":"error","name":"ERC721InvalidReceiver","inputs":[{"name":"receiver","type":"address","internalType":"address"}]},{"type":"error","name":"ERC721InvalidSender","inputs":[{"name":"sender","type":"address","internalType":"address"}]},{"type":"error","name":"ERC721NonexistentToken","inputs":[{"name":"tokenId","type":"uint256","internalType":"uint256"}]},{"type":"error","name":"NotDiamondOwner","inputs":[]}],"bytecode":{"object":"0x6080604052348015600f57600080fd5b506113358061001f6000396000f3fe608060405234801561001057600080fd5b50600436106100f55760003560e01c80636352211e11610097578063a22cb46511610066578063a22cb465146101ff578063b88d4fde14610212578063c87b56dd14610225578063e985e9c51461023857600080fd5b80636352211e146101b057806370a08231146101c357806395d89b41146101e4578063a1448194146101ec57600080fd5b8063095ea7b3116100d3578063095ea7b31461016257806323b872dd146101775780633e54330b1461018a57806342842e0e1461019d57600080fd5b806301ffc9a7146100fa57806306fdde0314610122578063081812fc14610137575b600080fd5b61010d610108366004610ddb565b61024b565b60405190151581526020015b60405180910390f35b61012a61029d565b6040516101199190610e48565b61014a610145366004610e5b565b610360565b6040516001600160a01b039091168152602001610119565b610175610170366004610e90565b610375565b005b610175610185366004610eba565b610384565b610175610198366004610fa7565b610414565b6101756101ab366004610eba565b61048b565b61014a6101be366004610e5b565b6104ab565b6101d66101d1366004611010565b6104b6565b604051908152602001610119565b61012a61051d565b6101756101fa366004610e90565b61055c565b61017561020d36600461102b565b610576565b610175610220366004611067565b610581565b61012a610233366004610e5b565b610599565b61010d6102463660046110e3565b61060e565b60006001600160e01b031982166380ac58cd60e01b148061027c57506001600160e01b03198216635b5e139f60e01b145b8061029757506301ffc9a760e01b6001600160e01b03198316145b92915050565b7fc8fcad8db84d3cc18b4c41d551ea0ee66dd599cde068d998e57d5e09332c132180546060916000805160206112e0833981519152916102dc90611116565b80601f016020809104026020016040519081016040528092919081815260200182805461030890611116565b80156103555780601f1061032a57610100808354040283529160200191610355565b820191906000526020600020905b81548152906001019060200180831161033857829003601f168201915b505050505091505090565b600061036b8261065b565b5061029782610693565b6103808282336106cd565b5050565b6001600160a01b0382166103b357604051633250574960e11b8152600060048201526024015b60405180910390fd5b60006103c08383336106da565b9050836001600160a01b0316816001600160a01b03161461040e576040516364283d7b60e01b81526001600160a01b03808616600483015260248201849052821660448201526064016103aa565b50505050565b7fc8fcad8db84d3cc18b4c41d551ea0ee66dd599cde068d998e57d5e09332c1320546000805160206112e0833981519152906001600160a01b0316331461046e57604051630305808160e41b815260040160405180910390fd5b6005810161047c8482611197565b506006810161040e8382611197565b6104a683838360405180602001604052806000815250610581565b505050565b60006102978261065b565b60006001600160a01b0382166104e2576040516322718ad960e21b8152600060048201526024016103aa565b506001600160a01b031660009081527fc8fcad8db84d3cc18b4c41d551ea0ee66dd599cde068d998e57d5e09332c1324602052604090205490565b7fc8fcad8db84d3cc18b4c41d551ea0ee66dd599cde068d998e57d5e09332c132280546060916000805160206112e0833981519152916102dc90611116565b6103808282604051806020016040528060008152506107e4565b6103803383836107fc565b61058c848484610384565b61040e33858585856108ad565b60606105a48261065b565b5060006105bc60408051602081019091526000815290565b905060008151116105dc5760405180602001604052806000815250610607565b806105e6846109d8565b6040516020016105f7929190611256565b6040516020818303038152906040525b9392505050565b6001600160a01b0391821660009081527fc8fcad8db84d3cc18b4c41d551ea0ee66dd599cde068d998e57d5e09332c13266020908152604080832093909416825291909152205460ff1690565b60008061066783610a6b565b90506001600160a01b03811661029757604051637e27328960e01b8152600481018490526024016103aa565b60009081527fc8fcad8db84d3cc18b4c41d551ea0ee66dd599cde068d998e57d5e09332c132560205260409020546001600160a01b031690565b6104a68383836001610aa5565b60006000805160206112e0833981519152816106f585610a6b565b90506001600160a01b0384161561071157610711818587610bbb565b6001600160a01b038116156107515761072e600086600080610aa5565b6001600160a01b0381166000908152600883016020526040902080546000190190555b6001600160a01b03861615610782576001600160a01b03861660009081526008830160205260409020805460010190555b600085815260078301602052604080822080546001600160a01b0319166001600160a01b038a811691821790925591518893918516917fddf252ad1be2c89b69c2b068fc378daa952ba7f163c4a11628f55a4df523b3ef91a495945050505050565b6107ee8383610c1f565b6104a63360008585856108ad565b6000805160206112e08339815191526001600160a01b03831661083d57604051630b61174360e31b81526001600160a01b03841660048201526024016103aa565b6001600160a01b038481166000818152600a84016020908152604080832094881680845294825291829020805460ff191687151590811790915591519182527f17307eab39ab6107e8899845ad3d59bd9653f200f220920489ca2b5937696c31910160405180910390a350505050565b6001600160a01b0383163b156109d157604051630a85bd0160e11b81526001600160a01b0384169063150b7a02906108ef908890889087908790600401611285565b6020604051808303816000875af192505050801561092a575060408051601f3d908101601f19168201909252610927918101906112c2565b60015b610993573d808015610958576040519150601f19603f3d011682016040523d82523d6000602084013e61095d565b606091505b50805160000361098b57604051633250574960e11b81526001600160a01b03851660048201526024016103aa565b805181602001fd5b6001600160e01b03198116630a85bd0160e11b146109cf57604051633250574960e11b81526001600160a01b03851660048201526024016103aa565b505b5050505050565b606060006109e583610c84565b600101905060008167ffffffffffffffff811115610a0557610a05610ef7565b6040519080825280601f01601f191660200182016040528015610a2f576020820181803683370190505b5090508181016020015b600019016f181899199a1a9b1b9c1cb0b131b232b360811b600a86061a8153600a8504945084610a3957509392505050565b60009081527fc8fcad8db84d3cc18b4c41d551ea0ee66dd599cde068d998e57d5e09332c132360205260409020546001600160a01b031690565b6000805160206112e08339815191528180610ac857506001600160a01b03831615155b15610b8a576000610ad88561065b565b90506001600160a01b03841615801590610b045750836001600160a01b0316816001600160a01b031614155b8015610b175750610b15818561060e565b155b15610b405760405163a9fbf51f60e01b81526001600160a01b03851660048201526024016103aa565b8215610b885784866001600160a01b0316826001600160a01b03167f8c5be1e5ebec7d5bd14f71427d1e84f3dd0314c0f7b2291e5b200ac8c7c3b92560405160405180910390a45b505b600093845260090160205250506040902080546001600160a01b0319166001600160a01b0392909216919091179055565b610bc6838383610d5c565b6104a6576001600160a01b038316610bf457604051637e27328960e01b8152600481018290526024016103aa565b60405163177e802f60e01b81526001600160a01b0383166004820152602481018290526044016103aa565b6001600160a01b038216610c4957604051633250574960e11b8152600060048201526024016103aa565b6000610c57838360006106da565b90506001600160a01b038116156104a6576040516339e3563760e11b8152600060048201526024016103aa565b60008072184f03e93ff9f4daa797ed6e38ed64bf6a1f0160401b8310610cc35772184f03e93ff9f4daa797ed6e38ed64bf6a1f0160401b830492506040015b6d04ee2d6d415b85acef81000000008310610cef576d04ee2d6d415b85acef8100000000830492506020015b662386f26fc100008310610d0d57662386f26fc10000830492506010015b6305f5e1008310610d25576305f5e100830492506008015b6127108310610d3957612710830492506004015b60648310610d4b576064830492506002015b600a83106102975760010192915050565b60006001600160a01b03831615801590610dba5750826001600160a01b0316846001600160a01b03161480610d965750610d96848461060e565b80610dba5750826001600160a01b0316610daf83610693565b6001600160a01b0316145b949350505050565b6001600160e01b031981168114610dd857600080fd5b50565b600060208284031215610ded57600080fd5b813561060781610dc2565b60005b83811015610e13578181015183820152602001610dfb565b50506000910152565b60008151808452610e34816020860160208601610df8565b601f01601f19169290920160200192915050565b6020815260006106076020830184610e1c565b600060208284031215610e6d57600080fd5b5035919050565b80356001600160a01b0381168114610e8b57600080fd5b919050565b60008060408385031215610ea357600080fd5b610eac83610e74565b946020939093013593505050565b600080600060608486031215610ecf57600080fd5b610ed884610e74565b9250610ee660208501610e74565b929592945050506040919091013590565b634e487b7160e01b600052604160045260246000fd5b60008067ffffffffffffffff841115610f2857610f28610ef7565b50604051601f19601f85018116603f0116810181811067ffffffffffffffff82111715610f5757610f57610ef7565b604052838152905080828401851015610f6f57600080fd5b83836020830137600060208583010152509392505050565b600082601f830112610f9857600080fd5b61060783833560208501610f0d565b60008060408385031215610fba57600080fd5b823567ffffffffffffffff811115610fd157600080fd5b610fdd85828601610f87565b925050602083013567ffffffffffffffff811115610ffa57600080fd5b61100685828601610f87565b9150509250929050565b60006020828403121561102257600080fd5b61060782610e74565b6000806040838503121561103e57600080fd5b61104783610e74565b91506020830135801515811461105c57600080fd5b809150509250929050565b6000806000806080858703121561107d57600080fd5b61108685610e74565b935061109460208601610e74565b925060408501359150606085013567ffffffffffffffff8111156110b757600080fd5b8501601f810187136110c857600080fd5b6110d787823560208401610f0d565b91505092959194509250565b600080604083850312156110f657600080fd5b6110ff83610e74565b915061110d60208401610e74565b90509250929050565b600181811c9082168061112a57607f821691505b60208210810361114a57634e487b7160e01b600052602260045260246000fd5b50919050565b601f8211156104a657806000526020600020601f840160051c810160208510156111775750805b601f840160051c820191505b818110156109d15760008155600101611183565b815167ffffffffffffffff8111156111b1576111b1610ef7565b6111c5816111bf8454611116565b84611150565b6020601f8211600181146111f957600083156111e15750848201515b600019600385901b1c1916600184901b1784556109d1565b600084815260208120601f198516915b828110156112295787850151825560209485019460019092019101611209565b50848210156112475786840151600019600387901b60f8161c191681555b50505050600190811b01905550565b60008351611268818460208801610df8565b83519083019061127c818360208801610df8565b01949350505050565b6001600160a01b03858116825284166020820152604081018390526080606082018190526000906112b890830184610e1c565b9695505050505050565b6000602082840312156112d457600080fd5b815161060781610dc256fec8fcad8db84d3cc18b4c41d551ea0ee66dd599cde068d998e57d5e09332c131ca264697066735822122084be43b51978b542db35f0f25027dd055592c9e694af97a4cbe6713d5e7f643464736f6c634300081c0033","linkReferences":{}},"methodIdentifiers":{"approve(address,uint256)":"095ea7b3","balanceOf(address)":"70a08231","getApproved(uint256)":"081812fc","initialiseFacet(string,string)":"3e54330b","isApprovedForAll(address,address)":"e985e9c5","name()":"06fdde03","ownerOf(uint256)":"6352211e","safeMint(address,uint256)":"a1448194","safeTransferFrom(address,address,uint256)":"42842e0e","safeTransferFrom(address,address,uint256,bytes)":"b88d4fde","setApprovalForAll(address,bool)":"a22cb465","supportsInterface(bytes4)":"01ffc9a7","symbol()":"95d89b41","tokenURI(uint256)":"c87b56dd","transferFrom(address,address,uint256)":"23b872dd"},"id":3}