{"abi":[{"type":"function","name":"bytesToBytes32","inputs":[{"name":"b","type":"bytes","internalType":"bytes"},{"name":"offset","type":"uint256","internalType":"uint256"}],"outputs":[{"name":"","type":"bytes32","internalType":"bytes32"}],"stateMutability":"pure"},{"type":"event","name":"SlotFound","inputs":[{"name":"who","type":"address","indexed":false,"internalType":"address"},{"name":"fsig","type":"bytes4","indexed":false,"internalType":"bytes4"},{"name":"keysHash","type":"bytes32","indexed":false,"internalType":"bytes32"},{"name":"slot","type":"uint256","indexed":false,"internalType":"uint256"}],"anonymous":false},{"type":"event","name":"WARNING_UninitedSlot","inputs":[{"name":"who","type":"address","indexed":false,"internalType":"address"},{"name":"slot","type":"uint256","indexed":false,"internalType":"uint256"}],"anonymous":false}],"bytecode":{"object":"0x610231610039600b82828239805160001a607314602c57634e487b7160e01b600052600060045260246000fd5b30600052607381538281f3fe73000000000000000000000000000000000000000030146080604052600436106100355760003560e01c8063535849391461003a575b600080fd5b61004d6100483660046100ea565b61005f565b60405190815260200160405180910390f35b60008060006020855111610074578451610077565b60205b905060005b818110156100c85761008f8160086101bb565b8661009a83886101d2565b815181106100aa576100aa6101e5565b01602001516001600160f81b031916901c929092179160010161007c565b50909150505b92915050565b634e487b7160e01b600052604160045260246000fd5b600080604083850312156100fd57600080fd5b823567ffffffffffffffff81111561011457600080fd5b8301601f8101851361012557600080fd5b803567ffffffffffffffff81111561013f5761013f6100d4565b604051601f8201601f19908116603f0116810167ffffffffffffffff8111828210171561016e5761016e6100d4565b60405281815282820160200187101561018657600080fd5b8160208401602083013760006020928201830152969401359450505050565b634e487b7160e01b600052601160045260246000fd5b80820281158282048414176100ce576100ce6101a5565b808201808211156100ce576100ce6101a5565b634e487b7160e01b600052603260045260246000fdfea264697066735822122088e300034a18fd2ad2af8e85038458e5b89e21d7c1938fdb87ff5351a5157a5664736f6c634300081c0033","linkReferences":{}},"methodIdentifiers":{"bytesToBytes32(bytes,uint256)":"53584939"},"id":25}