{
  "_format": "hh-sol-artifact-1",
  "contractName": "Todo",
  "sourceName": "contracts/TodoList.sol",
  "abi": [
    {
      "anonymous": false,
      "inputs": [
        {
          "indexed": true,
          "internalType": "uint256",
          "name": "index",
          "type": "uint256"
        },
        {
          "indexed": false,
          "internalType": "string",
          "name": "title",
          "type": "string"
        }
      ],
      "name": "TodoCreated",
      "type": "event"
    },
    {
      "anonymous": false,
      "inputs": [
        {
          "indexed": true,
          "internalType": "uint256",
          "name": "index",
          "type": "uint256"
        },
        {
          "indexed": false,
          "internalType": "bool",
          "name": "isDone",
          "type": "bool"
        }
      ],
      "name": "TodoUpdated",
      "type": "event"
    },
    {
      "inputs": [
        {
          "internalType": "string",
          "name": "_title",
          "type": "string"
        },
        {
          "internalType": "string",
          "name": "_description",
          "type": "string"
        }
      ],
      "name": "createTodo",
      "outputs": [],
      "stateMutability": "nonpayable",
      "type": "function"
    },
    {
      "inputs": [
        {
          "internalType": "uint256",
          "name": "_index",
          "type": "uint256"
        }
      ],
      "name": "getTodo",
      "outputs": [
        {
          "components": [
            {
              "internalType": "string",
              "name": "title",
              "type": "string"
            },
            {
              "internalType": "string",
              "name": "description",
              "type": "string"
            },
            {
              "internalType": "bool",
              "name": "isDone",
              "type": "bool"
            }
          ],
          "internalType": "struct Todo.TodoItem",
          "name": "",
          "type": "tuple"
        }
      ],
      "stateMutability": "view",
      "type": "function"
    },
    {
      "inputs": [],
      "name": "getTodos",
      "outputs": [
        {
          "components": [
            {
              "internalType": "string",
              "name": "title",
              "type": "string"
            },
            {
              "internalType": "string",
              "name": "description",
              "type": "string"
            },
            {
              "internalType": "bool",
              "name": "isDone",
              "type": "bool"
            }
          ],
          "internalType": "struct Todo.TodoItem[]",
          "name": "todos_",
          "type": "tuple[]"
        }
      ],
      "stateMutability": "view",
      "type": "function"
    },
    {
      "inputs": [
        {
          "internalType": "uint256",
          "name": "_index",
          "type": "uint256"
        }
      ],
      "name": "updateStatus",
      "outputs": [],
      "stateMutability": "nonpayable",
      "type": "function"
    }
  ],
  "bytecode": "0x6080604052348015600f57600080fd5b50610f568061001f6000396000f3fe608060405234801561001057600080fd5b506004361061004c5760003560e01c80633380b99f14610051578063c33926cb1461006d578063d61e72011461008b578063dd68afb6146100a7575b600080fd5b61006b60048036038101906100669190610785565b6100d7565b005b6100756101c1565b60405161008291906109b0565b60405180910390f35b6100a560048036038101906100a09190610a08565b61035f565b005b6100c160048036038101906100bc9190610a08565b610446565b6040516100ce9190610a8c565b60405180910390f35b600060405180606001604052808481526020018381526020016000151581525090506000819080600181540180825580915050600190039060005260206000209060030201600090919091909150600082015181600001908161013a9190610cba565b5060208201518160010190816101509190610cba565b5060408201518160020160006101000a81548160ff021916908315150217905550505060016000805490506101859190610dbb565b7f8106597ec7f7cdf5d557a8206e1ef280e0ca13186b4776b6302ab662cef0dba6846040516101b49190610e39565b60405180910390a2505050565b60606000805480602002602001604051908101604052809291908181526020016000905b82821015610356578382906000526020600020906003020160405180606001604052908160008201805461021890610add565b80601f016020809104026020016040519081016040528092919081815260200182805461024490610add565b80156102915780601f1061026657610100808354040283529160200191610291565b820191906000526020600020905b81548152906001019060200180831161027457829003601f168201915b505050505081526020016001820180546102aa90610add565b80601f01602080910402602001604051908101604052809291908181526020018280546102d690610add565b80156103235780601f106102f857610100808354040283529160200191610323565b820191906000526020600020905b81548152906001019060200180831161030657829003601f168201915b505050505081526020016002820160009054906101000a900460ff161515151581525050815260200190600101906101e5565b50505050905090565b60008054905081106103a6576040517f08c379a000000000000000000000000000000000000000000000000000000000815260040161039d90610ea7565b60405180910390fd5b60008082815481106103bb576103ba610ec7565b5b906000526020600020906003020190508060020160009054906101000a900460ff16158160020160006101000a81548160ff021916908315150217905550817f5f91d07fc3f6a4250a283a3c1aeb042675a2af7236ae3e55ead918a92f6efd558260020160009054906101000a900460ff1660405161043a9190610f05565b60405180910390a25050565b61044e610608565b6000805490508210610495576040517f08c379a000000000000000000000000000000000000000000000000000000000815260040161048c90610ea7565b60405180910390fd5b600082815481106104a9576104a8610ec7565b5b90600052602060002090600302016040518060600160405290816000820180546104d290610add565b80601f01602080910402602001604051908101604052809291908181526020018280546104fe90610add565b801561054b5780601f106105205761010080835404028352916020019161054b565b820191906000526020600020905b81548152906001019060200180831161052e57829003601f168201915b5050505050815260200160018201805461056490610add565b80601f016020809104026020016040519081016040528092919081815260200182805461059090610add565b80156105dd5780601f106105b2576101008083540402835291602001916105dd565b820191906000526020600020905b8154815290600101906020018083116105c057829003601f168201915b505050505081526020016002820160009054906101000a900460ff1615151515815250509050919050565b604051806060016040528060608152602001606081526020016000151581525090565b6000604051905090565b600080fd5b600080fd5b600080fd5b600080fd5b6000601f19601f8301169050919050565b7f4e487b7100000000000000000000000000000000000000000000000000000000600052604160045260246000fd5b61069282610649565b810181811067ffffffffffffffff821117156106b1576106b061065a565b5b80604052505050565b60006106c461062b565b90506106d08282610689565b919050565b600067ffffffffffffffff8211156106f0576106ef61065a565b5b6106f982610649565b9050602081019050919050565b82818337600083830152505050565b6000610728610723846106d5565b6106ba565b90508281526020810184848401111561074457610743610644565b5b61074f848285610706565b509392505050565b600082601f83011261076c5761076b61063f565b5b813561077c848260208601610715565b91505092915050565b6000806040838503121561079c5761079b610635565b5b600083013567ffffffffffffffff8111156107ba576107b961063a565b5b6107c685828601610757565b925050602083013567ffffffffffffffff8111156107e7576107e661063a565b5b6107f385828601610757565b9150509250929050565b600081519050919050565b600082825260208201905092915050565b6000819050602082019050919050565b600081519050919050565b600082825260208201905092915050565b60005b83811015610863578082015181840152602081019050610848565b60008484015250505050565b600061087a82610829565b6108848185610834565b9350610894818560208601610845565b61089d81610649565b840191505092915050565b60008115159050919050565b6108bd816108a8565b82525050565b600060608301600083015184820360008601526108e0828261086f565b915050602083015184820360208601526108fa828261086f565b915050604083015161090f60408601826108b4565b508091505092915050565b600061092683836108c3565b905092915050565b6000602082019050919050565b6000610946826107fd565b6109508185610808565b93508360208202850161096285610819565b8060005b8581101561099e578484038952815161097f858261091a565b945061098a8361092e565b925060208a01995050600181019050610966565b50829750879550505050505092915050565b600060208201905081810360008301526109ca818461093b565b905092915050565b6000819050919050565b6109e5816109d2565b81146109f057600080fd5b50565b600081359050610a02816109dc565b92915050565b600060208284031215610a1e57610a1d610635565b5b6000610a2c848285016109f3565b91505092915050565b60006060830160008301518482036000860152610a52828261086f565b91505060208301518482036020860152610a6c828261086f565b9150506040830151610a8160408601826108b4565b508091505092915050565b60006020820190508181036000830152610aa68184610a35565b905092915050565b7f4e487b7100000000000000000000000000000000000000000000000000000000600052602260045260246000fd5b60006002820490506001821680610af557607f821691505b602082108103610b0857610b07610aae565b5b50919050565b60008190508160005260206000209050919050565b60006020601f8301049050919050565b600082821b905092915050565b600060088302610b707fffffffffffffffffffffffffffffffffffffffffffffffffffffffffffffffff82610b33565b610b7a8683610b33565b95508019841693508086168417925050509392505050565b6000819050919050565b6000610bb7610bb2610bad846109d2565b610b92565b6109d2565b9050919050565b6000819050919050565b610bd183610b9c565b610be5610bdd82610bbe565b848454610b40565b825550505050565b600090565b610bfa610bed565b610c05818484610bc8565b505050565b5b81811015610c2957610c1e600082610bf2565b600181019050610c0b565b5050565b601f821115610c6e57610c3f81610b0e565b610c4884610b23565b81016020851015610c57578190505b610c6b610c6385610b23565b830182610c0a565b50505b505050565b600082821c905092915050565b6000610c9160001984600802610c73565b1980831691505092915050565b6000610caa8383610c80565b9150826002028217905092915050565b610cc382610829565b67ffffffffffffffff811115610cdc57610cdb61065a565b5b610ce68254610add565b610cf1828285610c2d565b600060209050601f831160018114610d245760008415610d12578287015190505b610d1c8582610c9e565b865550610d84565b601f198416610d3286610b0e565b60005b82811015610d5a57848901518255600182019150602085019450602081019050610d35565b86831015610d775784890151610d73601f891682610c80565b8355505b6001600288020188555050505b505050505050565b7f4e487b7100000000000000000000000000000000000000000000000000000000600052601160045260246000fd5b6000610dc6826109d2565b9150610dd1836109d2565b9250828203905081811115610de957610de8610d8c565b5b92915050565b600082825260208201905092915050565b6000610e0b82610829565b610e158185610def565b9350610e25818560208601610845565b610e2e81610649565b840191505092915050565b60006020820190508181036000830152610e538184610e00565b905092915050565b7f696e646578206f7574206f6620626f756e640000000000000000000000000000600082015250565b6000610e91601283610def565b9150610e9c82610e5b565b602082019050919050565b60006020820190508181036000830152610ec081610e84565b9050919050565b7f4e487b7100000000000000000000000000000000000000000000000000000000600052603260045260246000fd5b610eff816108a8565b82525050565b6000602082019050610f1a6000830184610ef6565b9291505056fea2646970667358221220d6d77edbd3acfe5cd248f9f7c79ca98e760bd93c423da1741fc152568258506f64736f6c634300081a0033",
  "linkReferences": {},
  "deployedLinkReferences": {}
}