{
  "_format": "hh-sol-artifact-1",
  "contractName": "StudentPortal",
  "sourceName": "contracts/StudentPortal.sol",
  "abi": [
    {
      "inputs": [],
      "stateMutability": "nonpayable",
      "type": "constructor"
    },
    {
      "inputs": [],
      "name": "DOBRequired",
      "type": "error"
    },
    {
      "inputs": [],
      "name": "EmailRequired",
      "type": "error"
    },
    {
      "inputs": [],
      "name": "NameRequired",
      "type": "error"
    },
    {
      "inputs": [],
      "name": "NotOwner",
      "type": "error"
    },
    {
      "inputs": [],
      "name": "StudentNotFound",
      "type": "error"
    },
    {
      "anonymous": false,
      "inputs": [
        {
          "indexed": true,
          "internalType": "uint256",
          "name": "studentId",
          "type": "uint256"
        },
        {
          "indexed": true,
          "internalType": "string",
          "name": "name",
          "type": "string"
        },
        {
          "indexed": false,
          "internalType": "string",
          "name": "email",
          "type": "string"
        },
        {
          "indexed": false,
          "internalType": "string",
          "name": "country",
          "type": "string"
        }
      ],
      "name": "StudentCreated",
      "type": "event"
    },
    {
      "anonymous": false,
      "inputs": [
        {
          "indexed": false,
          "internalType": "uint256",
          "name": "studentId",
          "type": "uint256"
        }
      ],
      "name": "StudentDeleted",
      "type": "event"
    },
    {
      "anonymous": false,
      "inputs": [
        {
          "indexed": true,
          "internalType": "uint256",
          "name": "studentId",
          "type": "uint256"
        },
        {
          "indexed": true,
          "internalType": "string",
          "name": "name",
          "type": "string"
        },
        {
          "indexed": false,
          "internalType": "string",
          "name": "email",
          "type": "string"
        },
        {
          "indexed": false,
          "internalType": "string",
          "name": "country",
          "type": "string"
        }
      ],
      "name": "StudentUpdated",
      "type": "event"
    },
    {
      "inputs": [
        {
          "internalType": "uint256",
          "name": "_studentId",
          "type": "uint256"
        }
      ],
      "name": "deleteStudent",
      "outputs": [],
      "stateMutability": "nonpayable",
      "type": "function"
    },
    {
      "inputs": [
        {
          "internalType": "uint256",
          "name": "_studentId",
          "type": "uint256"
        }
      ],
      "name": "getStudent",
      "outputs": [
        {
          "internalType": "string",
          "name": "name",
          "type": "string"
        },
        {
          "internalType": "string",
          "name": "email",
          "type": "string"
        },
        {
          "internalType": "uint16",
          "name": "dateOfBirth",
          "type": "uint16"
        },
        {
          "internalType": "string",
          "name": "lga",
          "type": "string"
        },
        {
          "internalType": "string",
          "name": "country",
          "type": "string"
        },
        {
          "internalType": "string",
          "name": "state",
          "type": "string"
        }
      ],
      "stateMutability": "view",
      "type": "function"
    },
    {
      "inputs": [],
      "name": "owner",
      "outputs": [
        {
          "internalType": "address",
          "name": "",
          "type": "address"
        }
      ],
      "stateMutability": "view",
      "type": "function"
    },
    {
      "inputs": [
        {
          "internalType": "uint16",
          "name": "_dateOfBirth",
          "type": "uint16"
        },
        {
          "internalType": "string",
          "name": "_name",
          "type": "string"
        },
        {
          "internalType": "string",
          "name": "_email",
          "type": "string"
        },
        {
          "internalType": "string",
          "name": "_lga",
          "type": "string"
        },
        {
          "internalType": "string",
          "name": "_state",
          "type": "string"
        },
        {
          "internalType": "string",
          "name": "_country",
          "type": "string"
        }
      ],
      "name": "registerStudent",
      "outputs": [
        {
          "internalType": "uint256",
          "name": "",
          "type": "uint256"
        }
      ],
      "stateMutability": "nonpayable",
      "type": "function"
    },
    {
      "inputs": [],
      "name": "studentCount",
      "outputs": [
        {
          "internalType": "uint256",
          "name": "",
          "type": "uint256"
        }
      ],
      "stateMutability": "view",
      "type": "function"
    },
    {
      "inputs": [
        {
          "internalType": "uint256",
          "name": "_studentId",
          "type": "uint256"
        },
        {
          "internalType": "uint16",
          "name": "_dateOfBirth",
          "type": "uint16"
        },
        {
          "internalType": "string",
          "name": "_name",
          "type": "string"
        },
        {
          "internalType": "string",
          "name": "_email",
          "type": "string"
        },
        {
          "internalType": "string",
          "name": "_lga",
          "type": "string"
        },
        {
          "internalType": "string",
          "name": "_state",
          "type": "string"
        },
        {
          "internalType": "string",
          "name": "_country",
          "type": "string"
        }
      ],
      "name": "updateStudent",
      "outputs": [],
      "stateMutability": "nonpayable",
      "type": "function"
    }
  ],
  "bytecode": "0x6080604052348015600f57600080fd5b50336000806101000a81548173ffffffffffffffffffffffffffffffffffffffff021916908373ffffffffffffffffffffffffffffffffffffffff16021790555061151e8061005f6000396000f3fe608060405234801561001057600080fd5b50600436106100625760003560e01c80635c0f84eb14610067578063642f9163146100975780638da5cb5b146100cc578063a476f271146100ea578063b645307d14610106578063e581f9ee14610122575b600080fd5b610081600480360381019061007c9190610cc7565b610140565b60405161008e9190610df9565b60405180910390f35b6100b160048036038101906100ac9190610e40565b610384565b6040516100c396959493929190610efb565b60405180910390f35b6100d46106d9565b6040516100e19190610fc0565b60405180910390f35b61010460048036038101906100ff9190610fdb565b6106fd565b005b610120600480360381019061011b9190610e40565b61095b565b005b61012a610ad0565b6040516101379190610df9565b60405180910390f35b60008060009054906101000a900473ffffffffffffffffffffffffffffffffffffffff1673ffffffffffffffffffffffffffffffffffffffff163373ffffffffffffffffffffffffffffffffffffffff16146101c8576040517f30cd747100000000000000000000000000000000000000000000000000000000815260040160405180910390fd5b6000865103610203576040517fd98c3ce600000000000000000000000000000000000000000000000000000000815260040160405180910390fd5b600085510361023e576040517f9b00528a00000000000000000000000000000000000000000000000000000000815260040160405180910390fd5b60008761ffff160361027c576040517f4a5b159a00000000000000000000000000000000000000000000000000000000815260040160405180910390fd5b60006002600060015481526020019081526020016000209050878160000160006101000a81548161ffff021916908361ffff160217905550868160010190816102c59190611315565b50858160020190816102d79190611315565b50848160030190816102e99190611315565b50838160050190816102fb9190611315565b508281600401908161030d9190611315565b508660405161031c9190611423565b60405180910390206001547f784ef2aa1258e52ca86a162f6257526391fc516730139f03f4d08c3e99937f0c888660405161035892919061143a565b60405180910390a360016000815480929190610373906114a0565b919050559150509695505050505050565b6060806000606080606060015487106103c9576040517f078de8bf00000000000000000000000000000000000000000000000000000000815260040160405180910390fd5b600060026000898152602001908152602001600020905080600101816002018260000160009054906101000a900461ffff1683600301846004018560050185805461041390611138565b80601f016020809104026020016040519081016040528092919081815260200182805461043f90611138565b801561048c5780601f106104615761010080835404028352916020019161048c565b820191906000526020600020905b81548152906001019060200180831161046f57829003601f168201915b5050505050955084805461049f90611138565b80601f01602080910402602001604051908101604052809291908181526020018280546104cb90611138565b80156105185780601f106104ed57610100808354040283529160200191610518565b820191906000526020600020905b8154815290600101906020018083116104fb57829003601f168201915b5050505050945082805461052b90611138565b80601f016020809104026020016040519081016040528092919081815260200182805461055790611138565b80156105a45780601f10610579576101008083540402835291602001916105a4565b820191906000526020600020905b81548152906001019060200180831161058757829003601f168201915b505050505092508180546105b790611138565b80601f01602080910402602001604051908101604052809291908181526020018280546105e390611138565b80156106305780601f1061060557610100808354040283529160200191610630565b820191906000526020600020905b81548152906001019060200180831161061357829003601f168201915b5050505050915080805461064390611138565b80601f016020809104026020016040519081016040528092919081815260200182805461066f90611138565b80156106bc5780601f10610691576101008083540402835291602001916106bc565b820191906000526020600020905b81548152906001019060200180831161069f57829003601f168201915b505050505090509650965096509650965096505091939550919395565b60008054906101000a900473ffffffffffffffffffffffffffffffffffffffff1681565b60008054906101000a900473ffffffffffffffffffffffffffffffffffffffff1673ffffffffffffffffffffffffffffffffffffffff163373ffffffffffffffffffffffffffffffffffffffff1614610782576040517f30cd747100000000000000000000000000000000000000000000000000000000815260040160405180910390fd5b60015487106107bd576040517f078de8bf00000000000000000000000000000000000000000000000000000000815260040160405180910390fd5b60008551036107f8576040517fd98c3ce600000000000000000000000000000000000000000000000000000000815260040160405180910390fd5b6000845103610833576040517f9b00528a00000000000000000000000000000000000000000000000000000000815260040160405180910390fd5b60008661ffff1603610871576040517f4a5b159a00000000000000000000000000000000000000000000000000000000815260040160405180910390fd5b6000600260008981526020019081526020016000209050868160000160006101000a81548161ffff021916908361ffff160217905550858160010190816108b89190611315565b50848160020190816108ca9190611315565b50838160030190816108dc9190611315565b50828160050190816108ee9190611315565b50818160040190816109009190611315565b508560405161090f9190611423565b6040518091039020887fb4c3c1cb1657beb52d4b466095bfffb3948d69ddb0f2b969758938863f4406c2878560405161094992919061143a565b60405180910390a35050505050505050565b60008054906101000a900473ffffffffffffffffffffffffffffffffffffffff1673ffffffffffffffffffffffffffffffffffffffff163373ffffffffffffffffffffffffffffffffffffffff16146109e0576040517f30cd747100000000000000000000000000000000000000000000000000000000815260040160405180910390fd5b6001548110610a1b576040517f078de8bf00000000000000000000000000000000000000000000000000000000815260040160405180910390fd5b60026000828152602001908152602001600020600080820160006101000a81549061ffff0219169055600182016000610a549190610ad6565b600282016000610a649190610ad6565b600382016000610a749190610ad6565b600482016000610a849190610ad6565b600582016000610a949190610ad6565b50507f34de6b871245ed0a89b82912e8e5ee6d9c3104b3e5bb1d67a71ad7e68239e41c81604051610ac59190610df9565b60405180910390a150565b60015481565b508054610ae290611138565b6000825580601f10610af45750610b13565b601f016020900490600052602060002090810190610b129190610b16565b5b50565b5b80821115610b2f576000816000905550600101610b17565b5090565b6000604051905090565b600080fd5b600080fd5b600061ffff82169050919050565b610b5e81610b47565b8114610b6957600080fd5b50565b600081359050610b7b81610b55565b92915050565b600080fd5b600080fd5b6000601f19601f8301169050919050565b7f4e487b7100000000000000000000000000000000000000000000000000000000600052604160045260246000fd5b610bd482610b8b565b810181811067ffffffffffffffff82111715610bf357610bf2610b9c565b5b80604052505050565b6000610c06610b33565b9050610c128282610bcb565b919050565b600067ffffffffffffffff821115610c3257610c31610b9c565b5b610c3b82610b8b565b9050602081019050919050565b82818337600083830152505050565b6000610c6a610c6584610c17565b610bfc565b905082815260208101848484011115610c8657610c85610b86565b5b610c91848285610c48565b509392505050565b600082601f830112610cae57610cad610b81565b5b8135610cbe848260208601610c57565b91505092915050565b60008060008060008060c08789031215610ce457610ce3610b3d565b5b6000610cf289828a01610b6c565b965050602087013567ffffffffffffffff811115610d1357610d12610b42565b5b610d1f89828a01610c99565b955050604087013567ffffffffffffffff811115610d4057610d3f610b42565b5b610d4c89828a01610c99565b945050606087013567ffffffffffffffff811115610d6d57610d6c610b42565b5b610d7989828a01610c99565b935050608087013567ffffffffffffffff811115610d9a57610d99610b42565b5b610da689828a01610c99565b92505060a087013567ffffffffffffffff811115610dc757610dc6610b42565b5b610dd389828a01610c99565b9150509295509295509295565b6000819050919050565b610df381610de0565b82525050565b6000602082019050610e0e6000830184610dea565b92915050565b610e1d81610de0565b8114610e2857600080fd5b50565b600081359050610e3a81610e14565b92915050565b600060208284031215610e5657610e55610b3d565b5b6000610e6484828501610e2b565b91505092915050565b600081519050919050565b600082825260208201905092915050565b60005b83811015610ea7578082015181840152602081019050610e8c565b60008484015250505050565b6000610ebe82610e6d565b610ec88185610e78565b9350610ed8818560208601610e89565b610ee181610b8b565b840191505092915050565b610ef581610b47565b82525050565b600060c0820190508181036000830152610f158189610eb3565b90508181036020830152610f298188610eb3565b9050610f386040830187610eec565b8181036060830152610f4a8186610eb3565b90508181036080830152610f5e8185610eb3565b905081810360a0830152610f728184610eb3565b9050979650505050505050565b600073ffffffffffffffffffffffffffffffffffffffff82169050919050565b6000610faa82610f7f565b9050919050565b610fba81610f9f565b82525050565b6000602082019050610fd56000830184610fb1565b92915050565b600080600080600080600060e0888a031215610ffa57610ff9610b3d565b5b60006110088a828b01610e2b565b97505060206110198a828b01610b6c565b965050604088013567ffffffffffffffff81111561103a57611039610b42565b5b6110468a828b01610c99565b955050606088013567ffffffffffffffff81111561106757611066610b42565b5b6110738a828b01610c99565b945050608088013567ffffffffffffffff81111561109457611093610b42565b5b6110a08a828b01610c99565b93505060a088013567ffffffffffffffff8111156110c1576110c0610b42565b5b6110cd8a828b01610c99565b92505060c088013567ffffffffffffffff8111156110ee576110ed610b42565b5b6110fa8a828b01610c99565b91505092959891949750929550565b7f4e487b7100000000000000000000000000000000000000000000000000000000600052602260045260246000fd5b6000600282049050600182168061115057607f821691505b60208210810361116357611162611109565b5b50919050565b60008190508160005260206000209050919050565b60006020601f8301049050919050565b600082821b905092915050565b6000600883026111cb7fffffffffffffffffffffffffffffffffffffffffffffffffffffffffffffffff8261118e565b6111d5868361118e565b95508019841693508086168417925050509392505050565b6000819050919050565b600061121261120d61120884610de0565b6111ed565b610de0565b9050919050565b6000819050919050565b61122c836111f7565b61124061123882611219565b84845461119b565b825550505050565b600090565b611255611248565b611260818484611223565b505050565b5b818110156112845761127960008261124d565b600181019050611266565b5050565b601f8211156112c95761129a81611169565b6112a38461117e565b810160208510156112b2578190505b6112c66112be8561117e565b830182611265565b50505b505050565b600082821c905092915050565b60006112ec600019846008026112ce565b1980831691505092915050565b600061130583836112db565b9150826002028217905092915050565b61131e82610e6d565b67ffffffffffffffff81111561133757611336610b9c565b5b6113418254611138565b61134c828285611288565b600060209050601f83116001811461137f576000841561136d578287015190505b61137785826112f9565b8655506113df565b601f19841661138d86611169565b60005b828110156113b557848901518255600182019150602085019450602081019050611390565b868310156113d257848901516113ce601f8916826112db565b8355505b6001600288020188555050505b505050505050565b600081905092915050565b60006113fd82610e6d565b61140781856113e7565b9350611417818560208601610e89565b80840191505092915050565b600061142f82846113f2565b915081905092915050565b600060408201905081810360008301526114548185610eb3565b905081810360208301526114688184610eb3565b90509392505050565b7f4e487b7100000000000000000000000000000000000000000000000000000000600052601160045260246000fd5b60006114ab82610de0565b91507fffffffffffffffffffffffffffffffffffffffffffffffffffffffffffffffff82036114dd576114dc611471565b5b60018201905091905056fea26469706673582212208eaf308f00ca929587e9eef67440521f6f06bb0b9d1f7dad370ee80433fa6bba64736f6c634300081a0033",
  "linkReferences": {},
  "deployedLinkReferences": {}
}