{
  "_format": "hh-sol-artifact-1",
  "contractName": "Web3CXI",
  "sourceName": "contracts/Web3CXIToken.sol",
  "abi": [
    {
      "inputs": [],
      "stateMutability": "nonpayable",
      "type": "constructor"
    },
    {
      "inputs": [
        {
          "internalType": "address",
          "name": "spender",
          "type": "address"
        },
        {
          "internalType": "uint256",
          "name": "allowance",
          "type": "uint256"
        },
        {
          "internalType": "uint256",
          "name": "needed",
          "type": "uint256"
        }
      ],
      "name": "ERC20InsufficientAllowance",
      "type": "error"
    },
    {
      "inputs": [
        {
          "internalType": "address",
          "name": "sender",
          "type": "address"
        },
        {
          "internalType": "uint256",
          "name": "balance",
          "type": "uint256"
        },
        {
          "internalType": "uint256",
          "name": "needed",
          "type": "uint256"
        }
      ],
      "name": "ERC20InsufficientBalance",
      "type": "error"
    },
    {
      "inputs": [
        {
          "internalType": "address",
          "name": "approver",
          "type": "address"
        }
      ],
      "name": "ERC20InvalidApprover",
      "type": "error"
    },
    {
      "inputs": [
        {
          "internalType": "address",
          "name": "receiver",
          "type": "address"
        }
      ],
      "name": "ERC20InvalidReceiver",
      "type": "error"
    },
    {
      "inputs": [
        {
          "internalType": "address",
          "name": "sender",
          "type": "address"
        }
      ],
      "name": "ERC20InvalidSender",
      "type": "error"
    },
    {
      "inputs": [
        {
          "internalType": "address",
          "name": "spender",
          "type": "address"
        }
      ],
      "name": "ERC20InvalidSpender",
      "type": "error"
    },
    {
      "anonymous": false,
      "inputs": [
        {
          "indexed": true,
          "internalType": "address",
          "name": "owner",
          "type": "address"
        },
        {
          "indexed": true,
          "internalType": "address",
          "name": "spender",
          "type": "address"
        },
        {
          "indexed": false,
          "internalType": "uint256",
          "name": "value",
          "type": "uint256"
        }
      ],
      "name": "Approval",
      "type": "event"
    },
    {
      "anonymous": false,
      "inputs": [
        {
          "indexed": true,
          "internalType": "address",
          "name": "from",
          "type": "address"
        },
        {
          "indexed": true,
          "internalType": "address",
          "name": "to",
          "type": "address"
        },
        {
          "indexed": false,
          "internalType": "uint256",
          "name": "value",
          "type": "uint256"
        }
      ],
      "name": "Transfer",
      "type": "event"
    },
    {
      "inputs": [
        {
          "internalType": "address",
          "name": "owner",
          "type": "address"
        },
        {
          "internalType": "address",
          "name": "spender",
          "type": "address"
        }
      ],
      "name": "allowance",
      "outputs": [
        {
          "internalType": "uint256",
          "name": "",
          "type": "uint256"
        }
      ],
      "stateMutability": "view",
      "type": "function"
    },
    {
      "inputs": [
        {
          "internalType": "address",
          "name": "spender",
          "type": "address"
        },
        {
          "internalType": "uint256",
          "name": "value",
          "type": "uint256"
        }
      ],
      "name": "approve",
      "outputs": [
        {
          "internalType": "bool",
          "name": "",
          "type": "bool"
        }
      ],
      "stateMutability": "nonpayable",
      "type": "function"
    },
    {
      "inputs": [
        {
          "internalType": "address",
          "name": "account",
          "type": "address"
        }
      ],
      "name": "balanceOf",
      "outputs": [
        {
          "internalType": "uint256",
          "name": "",
          "type": "uint256"
        }
      ],
      "stateMutability": "view",
      "type": "function"
    },
    {
      "inputs": [],
      "name": "decimals",
      "outputs": [
        {
          "internalType": "uint8",
          "name": "",
          "type": "uint8"
        }
      ],
      "stateMutability": "view",
      "type": "function"
    },
    {
      "inputs": [
        {
          "internalType": "uint256",
          "name": "_amount",
          "type": "uint256"
        }
      ],
      "name": "mint",
      "outputs": [],
      "stateMutability": "nonpayable",
      "type": "function"
    },
    {
      "inputs": [],
      "name": "name",
      "outputs": [
        {
          "internalType": "string",
          "name": "",
          "type": "string"
        }
      ],
      "stateMutability": "view",
      "type": "function"
    },
    {
      "inputs": [],
      "name": "owner",
      "outputs": [
        {
          "internalType": "address",
          "name": "",
          "type": "address"
        }
      ],
      "stateMutability": "view",
      "type": "function"
    },
    {
      "inputs": [],
      "name": "symbol",
      "outputs": [
        {
          "internalType": "string",
          "name": "",
          "type": "string"
        }
      ],
      "stateMutability": "view",
      "type": "function"
    },
    {
      "inputs": [],
      "name": "totalSupply",
      "outputs": [
        {
          "internalType": "uint256",
          "name": "",
          "type": "uint256"
        }
      ],
      "stateMutability": "view",
      "type": "function"
    },
    {
      "inputs": [
        {
          "internalType": "address",
          "name": "to",
          "type": "address"
        },
        {
          "internalType": "uint256",
          "name": "value",
          "type": "uint256"
        }
      ],
      "name": "transfer",
      "outputs": [
        {
          "internalType": "bool",
          "name": "",
          "type": "bool"
        }
      ],
      "stateMutability": "nonpayable",
      "type": "function"
    },
    {
      "inputs": [
        {
          "internalType": "address",
          "name": "from",
          "type": "address"
        },
        {
          "internalType": "address",
          "name": "to",
          "type": "address"
        },
        {
          "internalType": "uint256",
          "name": "value",
          "type": "uint256"
        }
      ],
      "name": "transferFrom",
      "outputs": [
        {
          "internalType": "bool",
          "name": "",
          "type": "bool"
        }
      ],
      "stateMutability": "nonpayable",
      "type": "function"
    }
  ],
  "bytecode": "0x60806040523480156200001157600080fd5b506040518060400160405280600d81526020017f5745423343584920546f6b656e000000000000000000000000000000000000008152506040518060400160405280600481526020017f574358490000000000000000000000000000000000000000000000000000000081525081600390816200008f91906200063e565b508060049081620000a191906200063e565b50505033600560006101000a81548173ffffffffffffffffffffffffffffffffffffffff021916908373ffffffffffffffffffffffffffffffffffffffff160217905550620001013369152d02c7e14af68000006200010760201b60201c565b6200085c565b600073ffffffffffffffffffffffffffffffffffffffff168273ffffffffffffffffffffffffffffffffffffffff16036200017c5760006040517fec442f050000000000000000000000000000000000000000000000000000000081526004016200017391906200076a565b60405180910390fd5b62000190600083836200019460201b60201c565b5050565b600073ffffffffffffffffffffffffffffffffffffffff168373ffffffffffffffffffffffffffffffffffffffff1603620001ea578060026000828254620001dd9190620007b6565b92505081905550620002c0565b60008060008573ffffffffffffffffffffffffffffffffffffffff1673ffffffffffffffffffffffffffffffffffffffff1681526020019081526020016000205490508181101562000279578381836040517fe450d38c000000000000000000000000000000000000000000000000000000008152600401620002709392919062000802565b60405180910390fd5b8181036000808673ffffffffffffffffffffffffffffffffffffffff1673ffffffffffffffffffffffffffffffffffffffff16815260200190815260200160002081905550505b600073ffffffffffffffffffffffffffffffffffffffff168273ffffffffffffffffffffffffffffffffffffffff16036200030b578060026000828254039250508190555062000358565b806000808473ffffffffffffffffffffffffffffffffffffffff1673ffffffffffffffffffffffffffffffffffffffff168152602001908152602001600020600082825401925050819055505b8173ffffffffffffffffffffffffffffffffffffffff168373ffffffffffffffffffffffffffffffffffffffff167fddf252ad1be2c89b69c2b068fc378daa952ba7f163c4a11628f55a4df523b3ef83604051620003b791906200083f565b60405180910390a3505050565b600081519050919050565b7f4e487b7100000000000000000000000000000000000000000000000000000000600052604160045260246000fd5b7f4e487b7100000000000000000000000000000000000000000000000000000000600052602260045260246000fd5b600060028204905060018216806200044657607f821691505b6020821081036200045c576200045b620003fe565b5b50919050565b60008190508160005260206000209050919050565b60006020601f8301049050919050565b600082821b905092915050565b600060088302620004c67fffffffffffffffffffffffffffffffffffffffffffffffffffffffffffffffff8262000487565b620004d2868362000487565b95508019841693508086168417925050509392505050565b6000819050919050565b6000819050919050565b60006200051f620005196200051384620004ea565b620004f4565b620004ea565b9050919050565b6000819050919050565b6200053b83620004fe565b620005536200054a8262000526565b84845462000494565b825550505050565b600090565b6200056a6200055b565b6200057781848462000530565b505050565b5b818110156200059f576200059360008262000560565b6001810190506200057d565b5050565b601f821115620005ee57620005b88162000462565b620005c38462000477565b81016020851015620005d3578190505b620005eb620005e28562000477565b8301826200057c565b50505b505050565b600082821c905092915050565b60006200061360001984600802620005f3565b1980831691505092915050565b60006200062e838362000600565b9150826002028217905092915050565b6200064982620003c4565b67ffffffffffffffff811115620006655762000664620003cf565b5b6200067182546200042d565b6200067e828285620005a3565b600060209050601f831160018114620006b65760008415620006a1578287015190505b620006ad858262000620565b8655506200071d565b601f198416620006c68662000462565b60005b82811015620006f057848901518255600182019150602085019450602081019050620006c9565b868310156200071057848901516200070c601f89168262000600565b8355505b6001600288020188555050505b505050505050565b600073ffffffffffffffffffffffffffffffffffffffff82169050919050565b6000620007528262000725565b9050919050565b620007648162000745565b82525050565b600060208201905062000781600083018462000759565b92915050565b7f4e487b7100000000000000000000000000000000000000000000000000000000600052601160045260246000fd5b6000620007c382620004ea565b9150620007d083620004ea565b9250828201905080821115620007eb57620007ea62000787565b5b92915050565b620007fc81620004ea565b82525050565b600060608201905062000819600083018662000759565b620008286020830185620007f1565b620008376040830184620007f1565b949350505050565b6000602082019050620008566000830184620007f1565b92915050565b6110d8806200086c6000396000f3fe608060405234801561001057600080fd5b50600436106100a95760003560e01c806370a082311161007157806370a08231146101685780638da5cb5b1461019857806395d89b41146101b6578063a0712d68146101d4578063a9059cbb146101f0578063dd62ed3e14610220576100a9565b806306fdde03146100ae578063095ea7b3146100cc57806318160ddd146100fc57806323b872dd1461011a578063313ce5671461014a575b600080fd5b6100b6610250565b6040516100c39190610c51565b60405180910390f35b6100e660048036038101906100e19190610d0c565b6102e2565b6040516100f39190610d67565b60405180910390f35b610104610305565b6040516101119190610d91565b60405180910390f35b610134600480360381019061012f9190610dac565b61030f565b6040516101419190610d67565b60405180910390f35b61015261033e565b60405161015f9190610e1b565b60405180910390f35b610182600480360381019061017d9190610e36565b610347565b60405161018f9190610d91565b60405180910390f35b6101a061038f565b6040516101ad9190610e72565b60405180910390f35b6101be6103b5565b6040516101cb9190610c51565b60405180910390f35b6101ee60048036038101906101e99190610e8d565b610447565b005b61020a60048036038101906102059190610d0c565b6104f7565b6040516102179190610d67565b60405180910390f35b61023a60048036038101906102359190610eba565b61051a565b6040516102479190610d91565b60405180910390f35b60606003805461025f90610f29565b80601f016020809104026020016040519081016040528092919081815260200182805461028b90610f29565b80156102d85780601f106102ad576101008083540402835291602001916102d8565b820191906000526020600020905b8154815290600101906020018083116102bb57829003601f168201915b5050505050905090565b6000806102ed6105a1565b90506102fa8185856105a9565b600191505092915050565b6000600254905090565b60008061031a6105a1565b90506103278582856105bb565b61033285858561064f565b60019150509392505050565b60006012905090565b60008060008373ffffffffffffffffffffffffffffffffffffffff1673ffffffffffffffffffffffffffffffffffffffff168152602001908152602001600020549050919050565b600560009054906101000a900473ffffffffffffffffffffffffffffffffffffffff1681565b6060600480546103c490610f29565b80601f01602080910402602001604051908101604052809291908181526020018280546103f090610f29565b801561043d5780601f106104125761010080835404028352916020019161043d565b820191906000526020600020905b81548152906001019060200180831161042057829003601f168201915b5050505050905090565b600560009054906101000a900473ffffffffffffffffffffffffffffffffffffffff1673ffffffffffffffffffffffffffffffffffffffff163373ffffffffffffffffffffffffffffffffffffffff16146104d7576040517f08c379a00000000000000000000000000000000000000000000000000000000081526004016104ce90610fa6565b60405180910390fd5b6104f433670de0b6b3a7640000836104ef9190610ff5565b610743565b50565b6000806105026105a1565b905061050f81858561064f565b600191505092915050565b6000600160008473ffffffffffffffffffffffffffffffffffffffff1673ffffffffffffffffffffffffffffffffffffffff16815260200190815260200160002060008373ffffffffffffffffffffffffffffffffffffffff1673ffffffffffffffffffffffffffffffffffffffff16815260200190815260200160002054905092915050565b600033905090565b6105b683838360016107c5565b505050565b60006105c7848461051a565b90507fffffffffffffffffffffffffffffffffffffffffffffffffffffffffffffffff81146106495781811015610639578281836040517ffb8f41b200000000000000000000000000000000000000000000000000000000815260040161063093929190611037565b60405180910390fd5b610648848484840360006107c5565b5b50505050565b600073ffffffffffffffffffffffffffffffffffffffff168373ffffffffffffffffffffffffffffffffffffffff16036106c15760006040517f96c6fd1e0000000000000000000000000000000000000000000000000000000081526004016106b89190610e72565b60405180910390fd5b600073ffffffffffffffffffffffffffffffffffffffff168273ffffffffffffffffffffffffffffffffffffffff16036107335760006040517fec442f0500000000000000000000000000000000000000000000000000000000815260040161072a9190610e72565b60405180910390fd5b61073e83838361099c565b505050565b600073ffffffffffffffffffffffffffffffffffffffff168273ffffffffffffffffffffffffffffffffffffffff16036107b55760006040517fec442f050000000000000000000000000000000000000000000000000000000081526004016107ac9190610e72565b60405180910390fd5b6107c16000838361099c565b5050565b600073ffffffffffffffffffffffffffffffffffffffff168473ffffffffffffffffffffffffffffffffffffffff16036108375760006040517fe602df0500000000000000000000000000000000000000000000000000000000815260040161082e9190610e72565b60405180910390fd5b600073ffffffffffffffffffffffffffffffffffffffff168373ffffffffffffffffffffffffffffffffffffffff16036108a95760006040517f94280d620000000000000000000000000000000000000000000000000000000081526004016108a09190610e72565b60405180910390fd5b81600160008673ffffffffffffffffffffffffffffffffffffffff1673ffffffffffffffffffffffffffffffffffffffff16815260200190815260200160002060008573ffffffffffffffffffffffffffffffffffffffff1673ffffffffffffffffffffffffffffffffffffffff168152602001908152602001600020819055508015610996578273ffffffffffffffffffffffffffffffffffffffff168473ffffffffffffffffffffffffffffffffffffffff167f8c5be1e5ebec7d5bd14f71427d1e84f3dd0314c0f7b2291e5b200ac8c7c3b9258460405161098d9190610d91565b60405180910390a35b50505050565b600073ffffffffffffffffffffffffffffffffffffffff168373ffffffffffffffffffffffffffffffffffffffff16036109ee5780600260008282546109e2919061106e565b92505081905550610ac1565b60008060008573ffffffffffffffffffffffffffffffffffffffff1673ffffffffffffffffffffffffffffffffffffffff16815260200190815260200160002054905081811015610a7a578381836040517fe450d38c000000000000000000000000000000000000000000000000000000008152600401610a7193929190611037565b60405180910390fd5b8181036000808673ffffffffffffffffffffffffffffffffffffffff1673ffffffffffffffffffffffffffffffffffffffff16815260200190815260200160002081905550505b600073ffffffffffffffffffffffffffffffffffffffff168273ffffffffffffffffffffffffffffffffffffffff1603610b0a5780600260008282540392505081905550610b57565b806000808473ffffffffffffffffffffffffffffffffffffffff1673ffffffffffffffffffffffffffffffffffffffff168152602001908152602001600020600082825401925050819055505b8173ffffffffffffffffffffffffffffffffffffffff168373ffffffffffffffffffffffffffffffffffffffff167fddf252ad1be2c89b69c2b068fc378daa952ba7f163c4a11628f55a4df523b3ef83604051610bb49190610d91565b60405180910390a3505050565b600081519050919050565b600082825260208201905092915050565b60005b83811015610bfb578082015181840152602081019050610be0565b60008484015250505050565b6000601f19601f8301169050919050565b6000610c2382610bc1565b610c2d8185610bcc565b9350610c3d818560208601610bdd565b610c4681610c07565b840191505092915050565b60006020820190508181036000830152610c6b8184610c18565b905092915050565b600080fd5b600073ffffffffffffffffffffffffffffffffffffffff82169050919050565b6000610ca382610c78565b9050919050565b610cb381610c98565b8114610cbe57600080fd5b50565b600081359050610cd081610caa565b92915050565b6000819050919050565b610ce981610cd6565b8114610cf457600080fd5b50565b600081359050610d0681610ce0565b92915050565b60008060408385031215610d2357610d22610c73565b5b6000610d3185828601610cc1565b9250506020610d4285828601610cf7565b9150509250929050565b60008115159050919050565b610d6181610d4c565b82525050565b6000602082019050610d7c6000830184610d58565b92915050565b610d8b81610cd6565b82525050565b6000602082019050610da66000830184610d82565b92915050565b600080600060608486031215610dc557610dc4610c73565b5b6000610dd386828701610cc1565b9350506020610de486828701610cc1565b9250506040610df586828701610cf7565b9150509250925092565b600060ff82169050919050565b610e1581610dff565b82525050565b6000602082019050610e306000830184610e0c565b92915050565b600060208284031215610e4c57610e4b610c73565b5b6000610e5a84828501610cc1565b91505092915050565b610e6c81610c98565b82525050565b6000602082019050610e876000830184610e63565b92915050565b600060208284031215610ea357610ea2610c73565b5b6000610eb184828501610cf7565b91505092915050565b60008060408385031215610ed157610ed0610c73565b5b6000610edf85828601610cc1565b9250506020610ef085828601610cc1565b9150509250929050565b7f4e487b7100000000000000000000000000000000000000000000000000000000600052602260045260246000fd5b60006002820490506001821680610f4157607f821691505b602082108103610f5457610f53610efa565b5b50919050565b7f796f7520617265206e6f74206f776e6572000000000000000000000000000000600082015250565b6000610f90601183610bcc565b9150610f9b82610f5a565b602082019050919050565b60006020820190508181036000830152610fbf81610f83565b9050919050565b7f4e487b7100000000000000000000000000000000000000000000000000000000600052601160045260246000fd5b600061100082610cd6565b915061100b83610cd6565b925082820261101981610cd6565b915082820484148315176110305761102f610fc6565b5b5092915050565b600060608201905061104c6000830186610e63565b6110596020830185610d82565b6110666040830184610d82565b949350505050565b600061107982610cd6565b915061108483610cd6565b925082820190508082111561109c5761109b610fc6565b5b9291505056fea2646970667358221220fda4f3dc85348c364449e33ec88495d102ab71ad8c4dbddc64289308a885d99a64736f6c63430008140033",
  "linkReferences": {},
  "deployedLinkReferences": {}
}