{
  "_format": "hh-sol-artifact-1",
  "contractName": "OnChainNFT",
  "sourceName": "contracts/OnChainNFT.sol",
  "abi": [
    {
      "inputs": [],
      "stateMutability": "nonpayable",
      "type": "constructor"
    },
    {
      "inputs": [
        {
          "internalType": "address",
          "name": "sender",
          "type": "address"
        },
        {
          "internalType": "uint256",
          "name": "tokenId",
          "type": "uint256"
        },
        {
          "internalType": "address",
          "name": "owner",
          "type": "address"
        }
      ],
      "name": "ERC721IncorrectOwner",
      "type": "error"
    },
    {
      "inputs": [
        {
          "internalType": "address",
          "name": "operator",
          "type": "address"
        },
        {
          "internalType": "uint256",
          "name": "tokenId",
          "type": "uint256"
        }
      ],
      "name": "ERC721InsufficientApproval",
      "type": "error"
    },
    {
      "inputs": [
        {
          "internalType": "address",
          "name": "approver",
          "type": "address"
        }
      ],
      "name": "ERC721InvalidApprover",
      "type": "error"
    },
    {
      "inputs": [
        {
          "internalType": "address",
          "name": "operator",
          "type": "address"
        }
      ],
      "name": "ERC721InvalidOperator",
      "type": "error"
    },
    {
      "inputs": [
        {
          "internalType": "address",
          "name": "owner",
          "type": "address"
        }
      ],
      "name": "ERC721InvalidOwner",
      "type": "error"
    },
    {
      "inputs": [
        {
          "internalType": "address",
          "name": "receiver",
          "type": "address"
        }
      ],
      "name": "ERC721InvalidReceiver",
      "type": "error"
    },
    {
      "inputs": [
        {
          "internalType": "address",
          "name": "sender",
          "type": "address"
        }
      ],
      "name": "ERC721InvalidSender",
      "type": "error"
    },
    {
      "inputs": [
        {
          "internalType": "uint256",
          "name": "tokenId",
          "type": "uint256"
        }
      ],
      "name": "ERC721NonexistentToken",
      "type": "error"
    },
    {
      "inputs": [
        {
          "internalType": "address",
          "name": "owner",
          "type": "address"
        }
      ],
      "name": "OwnableInvalidOwner",
      "type": "error"
    },
    {
      "inputs": [
        {
          "internalType": "address",
          "name": "account",
          "type": "address"
        }
      ],
      "name": "OwnableUnauthorizedAccount",
      "type": "error"
    },
    {
      "anonymous": false,
      "inputs": [
        {
          "indexed": true,
          "internalType": "address",
          "name": "owner",
          "type": "address"
        },
        {
          "indexed": true,
          "internalType": "address",
          "name": "approved",
          "type": "address"
        },
        {
          "indexed": true,
          "internalType": "uint256",
          "name": "tokenId",
          "type": "uint256"
        }
      ],
      "name": "Approval",
      "type": "event"
    },
    {
      "anonymous": false,
      "inputs": [
        {
          "indexed": true,
          "internalType": "address",
          "name": "owner",
          "type": "address"
        },
        {
          "indexed": true,
          "internalType": "address",
          "name": "operator",
          "type": "address"
        },
        {
          "indexed": false,
          "internalType": "bool",
          "name": "approved",
          "type": "bool"
        }
      ],
      "name": "ApprovalForAll",
      "type": "event"
    },
    {
      "anonymous": false,
      "inputs": [
        {
          "indexed": false,
          "internalType": "uint256",
          "name": "_fromTokenId",
          "type": "uint256"
        },
        {
          "indexed": false,
          "internalType": "uint256",
          "name": "_toTokenId",
          "type": "uint256"
        }
      ],
      "name": "BatchMetadataUpdate",
      "type": "event"
    },
    {
      "anonymous": false,
      "inputs": [
        {
          "indexed": false,
          "internalType": "uint256",
          "name": "_tokenId",
          "type": "uint256"
        }
      ],
      "name": "MetadataUpdate",
      "type": "event"
    },
    {
      "anonymous": false,
      "inputs": [
        {
          "indexed": false,
          "internalType": "uint256",
          "name": "tokenId",
          "type": "uint256"
        }
      ],
      "name": "Minted",
      "type": "event"
    },
    {
      "anonymous": false,
      "inputs": [
        {
          "indexed": true,
          "internalType": "address",
          "name": "previousOwner",
          "type": "address"
        },
        {
          "indexed": true,
          "internalType": "address",
          "name": "newOwner",
          "type": "address"
        }
      ],
      "name": "OwnershipTransferred",
      "type": "event"
    },
    {
      "anonymous": false,
      "inputs": [
        {
          "indexed": true,
          "internalType": "address",
          "name": "from",
          "type": "address"
        },
        {
          "indexed": true,
          "internalType": "address",
          "name": "to",
          "type": "address"
        },
        {
          "indexed": true,
          "internalType": "uint256",
          "name": "tokenId",
          "type": "uint256"
        }
      ],
      "name": "Transfer",
      "type": "event"
    },
    {
      "inputs": [
        {
          "internalType": "address",
          "name": "to",
          "type": "address"
        },
        {
          "internalType": "uint256",
          "name": "tokenId",
          "type": "uint256"
        }
      ],
      "name": "approve",
      "outputs": [],
      "stateMutability": "nonpayable",
      "type": "function"
    },
    {
      "inputs": [
        {
          "internalType": "address",
          "name": "owner",
          "type": "address"
        }
      ],
      "name": "balanceOf",
      "outputs": [
        {
          "internalType": "uint256",
          "name": "",
          "type": "uint256"
        }
      ],
      "stateMutability": "view",
      "type": "function"
    },
    {
      "inputs": [
        {
          "internalType": "string",
          "name": "imageURI",
          "type": "string"
        }
      ],
      "name": "formatTokenURI",
      "outputs": [
        {
          "internalType": "string",
          "name": "",
          "type": "string"
        }
      ],
      "stateMutability": "pure",
      "type": "function"
    },
    {
      "inputs": [
        {
          "internalType": "uint256",
          "name": "tokenId",
          "type": "uint256"
        }
      ],
      "name": "getApproved",
      "outputs": [
        {
          "internalType": "address",
          "name": "",
          "type": "address"
        }
      ],
      "stateMutability": "view",
      "type": "function"
    },
    {
      "inputs": [
        {
          "internalType": "address",
          "name": "owner",
          "type": "address"
        },
        {
          "internalType": "address",
          "name": "operator",
          "type": "address"
        }
      ],
      "name": "isApprovedForAll",
      "outputs": [
        {
          "internalType": "bool",
          "name": "",
          "type": "bool"
        }
      ],
      "stateMutability": "view",
      "type": "function"
    },
    {
      "inputs": [
        {
          "internalType": "string",
          "name": "svg",
          "type": "string"
        }
      ],
      "name": "mint",
      "outputs": [],
      "stateMutability": "nonpayable",
      "type": "function"
    },
    {
      "inputs": [],
      "name": "name",
      "outputs": [
        {
          "internalType": "string",
          "name": "",
          "type": "string"
        }
      ],
      "stateMutability": "view",
      "type": "function"
    },
    {
      "inputs": [],
      "name": "owner",
      "outputs": [
        {
          "internalType": "address",
          "name": "",
          "type": "address"
        }
      ],
      "stateMutability": "view",
      "type": "function"
    },
    {
      "inputs": [
        {
          "internalType": "uint256",
          "name": "tokenId",
          "type": "uint256"
        }
      ],
      "name": "ownerOf",
      "outputs": [
        {
          "internalType": "address",
          "name": "",
          "type": "address"
        }
      ],
      "stateMutability": "view",
      "type": "function"
    },
    {
      "inputs": [],
      "name": "renounceOwnership",
      "outputs": [],
      "stateMutability": "nonpayable",
      "type": "function"
    },
    {
      "inputs": [
        {
          "internalType": "address",
          "name": "from",
          "type": "address"
        },
        {
          "internalType": "address",
          "name": "to",
          "type": "address"
        },
        {
          "internalType": "uint256",
          "name": "tokenId",
          "type": "uint256"
        }
      ],
      "name": "safeTransferFrom",
      "outputs": [],
      "stateMutability": "nonpayable",
      "type": "function"
    },
    {
      "inputs": [
        {
          "internalType": "address",
          "name": "from",
          "type": "address"
        },
        {
          "internalType": "address",
          "name": "to",
          "type": "address"
        },
        {
          "internalType": "uint256",
          "name": "tokenId",
          "type": "uint256"
        },
        {
          "internalType": "bytes",
          "name": "data",
          "type": "bytes"
        }
      ],
      "name": "safeTransferFrom",
      "outputs": [],
      "stateMutability": "nonpayable",
      "type": "function"
    },
    {
      "inputs": [
        {
          "internalType": "address",
          "name": "operator",
          "type": "address"
        },
        {
          "internalType": "bool",
          "name": "approved",
          "type": "bool"
        }
      ],
      "name": "setApprovalForAll",
      "outputs": [],
      "stateMutability": "nonpayable",
      "type": "function"
    },
    {
      "inputs": [
        {
          "internalType": "bytes4",
          "name": "interfaceId",
          "type": "bytes4"
        }
      ],
      "name": "supportsInterface",
      "outputs": [
        {
          "internalType": "bool",
          "name": "",
          "type": "bool"
        }
      ],
      "stateMutability": "view",
      "type": "function"
    },
    {
      "inputs": [
        {
          "internalType": "string",
          "name": "svg",
          "type": "string"
        }
      ],
      "name": "svgToImageURI",
      "outputs": [
        {
          "internalType": "string",
          "name": "",
          "type": "string"
        }
      ],
      "stateMutability": "pure",
      "type": "function"
    },
    {
      "inputs": [],
      "name": "symbol",
      "outputs": [
        {
          "internalType": "string",
          "name": "",
          "type": "string"
        }
      ],
      "stateMutability": "view",
      "type": "function"
    },
    {
      "inputs": [
        {
          "internalType": "uint256",
          "name": "tokenId",
          "type": "uint256"
        }
      ],
      "name": "tokenURI",
      "outputs": [
        {
          "internalType": "string",
          "name": "",
          "type": "string"
        }
      ],
      "stateMutability": "view",
      "type": "function"
    },
    {
      "inputs": [
        {
          "internalType": "address",
          "name": "from",
          "type": "address"
        },
        {
          "internalType": "address",
          "name": "to",
          "type": "address"
        },
        {
          "internalType": "uint256",
          "name": "tokenId",
          "type": "uint256"
        }
      ],
      "name": "transferFrom",
      "outputs": [],
      "stateMutability": "nonpayable",
      "type": "function"
    },
    {
      "inputs": [
        {
          "internalType": "address",
          "name": "newOwner",
          "type": "address"
        }
      ],
      "name": "transferOwnership",
      "outputs": [],
      "stateMutability": "nonpayable",
      "type": "function"
    }
  ],
  "bytecode": "0x60806040523480156200001157600080fd5b50336040518060400160405280601081526020017f57454233435849204f4e2d434841494e000000000000000000000000000000008152506040518060400160405280600381526020017f574f430000000000000000000000000000000000000000000000000000000000815250816000908162000090919062000472565b508060019081620000a2919062000472565b505050600073ffffffffffffffffffffffffffffffffffffffff168173ffffffffffffffffffffffffffffffffffffffff16036200011a5760006040517f1e4fbdf70000000000000000000000000000000000000000000000000000000081526004016200011191906200059e565b60405180910390fd5b6200012b816200013260201b60201c565b50620005bb565b6000600760009054906101000a900473ffffffffffffffffffffffffffffffffffffffff16905081600760006101000a81548173ffffffffffffffffffffffffffffffffffffffff021916908373ffffffffffffffffffffffffffffffffffffffff1602179055508173ffffffffffffffffffffffffffffffffffffffff168173ffffffffffffffffffffffffffffffffffffffff167f8be0079c531659141344cd1fd0a4f28419497f9722a3daafe3b4186f6b6457e060405160405180910390a35050565b600081519050919050565b7f4e487b7100000000000000000000000000000000000000000000000000000000600052604160045260246000fd5b7f4e487b7100000000000000000000000000000000000000000000000000000000600052602260045260246000fd5b600060028204905060018216806200027a57607f821691505b60208210810362000290576200028f62000232565b5b50919050565b60008190508160005260206000209050919050565b60006020601f8301049050919050565b600082821b905092915050565b600060088302620002fa7fffffffffffffffffffffffffffffffffffffffffffffffffffffffffffffffff82620002bb565b620003068683620002bb565b95508019841693508086168417925050509392505050565b6000819050919050565b6000819050919050565b6000620003536200034d62000347846200031e565b62000328565b6200031e565b9050919050565b6000819050919050565b6200036f8362000332565b620003876200037e826200035a565b848454620002c8565b825550505050565b600090565b6200039e6200038f565b620003ab81848462000364565b505050565b5b81811015620003d357620003c760008262000394565b600181019050620003b1565b5050565b601f8211156200042257620003ec8162000296565b620003f784620002ab565b8101602085101562000407578190505b6200041f6200041685620002ab565b830182620003b0565b50505b505050565b600082821c905092915050565b6000620004476000198460080262000427565b1980831691505092915050565b600062000462838362000434565b9150826002028217905092915050565b6200047d82620001f8565b67ffffffffffffffff81111562000499576200049862000203565b5b620004a5825462000261565b620004b2828285620003d7565b600060209050601f831160018114620004ea5760008415620004d5578287015190505b620004e1858262000454565b86555062000551565b601f198416620004fa8662000296565b60005b828110156200052457848901518255600182019150602085019450602081019050620004fd565b8683101562000544578489015162000540601f89168262000434565b8355505b6001600288020188555050505b505050505050565b600073ffffffffffffffffffffffffffffffffffffffff82169050919050565b6000620005868262000559565b9050919050565b620005988162000579565b82525050565b6000602082019050620005b560008301846200058d565b92915050565b612b6980620005cb6000396000f3fe608060405234801561001057600080fd5b50600436106101215760003560e01c8063715018a6116100ad578063b88d4fde11610071578063b88d4fde1461031a578063c87b56dd14610336578063d85d3d2714610366578063e985e9c514610382578063f2fde38b146103b257610121565b8063715018a61461028857806371aee193146102925780638da5cb5b146102c257806395d89b41146102e0578063a22cb465146102fe57610121565b806323b872dd116100f457806323b872dd146101c057806330d871c6146101dc57806342842e0e1461020c5780636352211e1461022857806370a082311461025857610121565b806301ffc9a71461012657806306fdde0314610156578063081812fc14610174578063095ea7b3146101a4575b600080fd5b610140600480360381019061013b9190611db6565b6103ce565b60405161014d9190611dfe565b60405180910390f35b61015e61042f565b60405161016b9190611ea9565b60405180910390f35b61018e60048036038101906101899190611f01565b6104c1565b60405161019b9190611f6f565b60405180910390f35b6101be60048036038101906101b99190611fb6565b6104dd565b005b6101da60048036038101906101d59190611ff6565b6104f3565b005b6101f660048036038101906101f1919061217e565b6105f5565b6040516102039190611ea9565b60405180910390f35b61022660048036038101906102219190611ff6565b610669565b005b610242600480360381019061023d9190611f01565b610689565b60405161024f9190611f6f565b60405180910390f35b610272600480360381019061026d91906121c7565b61069b565b60405161027f9190612203565b60405180910390f35b610290610755565b005b6102ac60048036038101906102a7919061217e565b610769565b6040516102b99190611ea9565b60405180910390f35b6102ca6107b9565b6040516102d79190611f6f565b60405180910390f35b6102e86107e3565b6040516102f59190611ea9565b60405180910390f35b6103186004803603810190610313919061224a565b610875565b005b610334600480360381019061032f919061232b565b61088b565b005b610350600480360381019061034b9190611f01565b6108a8565b60405161035d9190611ea9565b60405180910390f35b610380600480360381019061037b919061217e565b6109bb565b005b61039c600480360381019061039791906123ae565b610a4f565b6040516103a99190611dfe565b60405180910390f35b6103cc60048036038101906103c791906121c7565b610ae3565b005b6000634906490660e01b7bffffffffffffffffffffffffffffffffffffffffffffffffffffffff1916827bffffffffffffffffffffffffffffffffffffffffffffffffffffffff19161480610428575061042782610b69565b5b9050919050565b60606000805461043e9061241d565b80601f016020809104026020016040519081016040528092919081815260200182805461046a9061241d565b80156104b75780601f1061048c576101008083540402835291602001916104b7565b820191906000526020600020905b81548152906001019060200180831161049a57829003601f168201915b5050505050905090565b60006104cc82610c4b565b506104d682610cd3565b9050919050565b6104ef82826104ea610d10565b610d18565b5050565b600073ffffffffffffffffffffffffffffffffffffffff168273ffffffffffffffffffffffffffffffffffffffff16036105655760006040517f64a0ae9200000000000000000000000000000000000000000000000000000000815260040161055c9190611f6f565b60405180910390fd5b60006105798383610574610d10565b610d2a565b90508373ffffffffffffffffffffffffffffffffffffffff168173ffffffffffffffffffffffffffffffffffffffff16146105ef578382826040517f64283d7b0000000000000000000000000000000000000000000000000000000081526004016105e69392919061244e565b60405180910390fd5b50505050565b606060006040518060400160405280601a81526020017f646174613a696d6167652f7376672b786d6c3b6261736536342c0000000000008152509050600061063c84610f44565b905081816040516020016106519291906124c1565b60405160208183030381529060405292505050919050565b6106848383836040518060200160405280600081525061088b565b505050565b600061069482610c4b565b9050919050565b60008073ffffffffffffffffffffffffffffffffffffffff168273ffffffffffffffffffffffffffffffffffffffff160361070e5760006040517f89c62b640000000000000000000000000000000000000000000000000000000081526004016107059190611f6f565b60405180910390fd5b600360008373ffffffffffffffffffffffffffffffffffffffff1673ffffffffffffffffffffffffffffffffffffffff168152602001908152602001600020549050919050565b61075d6110b6565b610767600061113d565b565b60606107938260405160200161077f91906125c9565b604051602081830303815290604052610f44565b6040516020016107a39190612642565b6040516020818303038152906040529050919050565b6000600760009054906101000a900473ffffffffffffffffffffffffffffffffffffffff16905090565b6060600180546107f29061241d565b80601f016020809104026020016040519081016040528092919081815260200182805461081e9061241d565b801561086b5780601f106108405761010080835404028352916020019161086b565b820191906000526020600020905b81548152906001019060200180831161084e57829003601f168201915b5050505050905090565b610887610880610d10565b8383611203565b5050565b6108968484846104f3565b6108a284848484611372565b50505050565b60606108b382610c4b565b5060006006600084815260200190815260200160002080546108d49061241d565b80601f01602080910402602001604051908101604052809291908181526020018280546109009061241d565b801561094d5780601f106109225761010080835404028352916020019161094d565b820191906000526020600020905b81548152906001019060200180831161093057829003601f168201915b50505050509050600061095e611529565b905060008151036109735781925050506109b6565b6000825111156109a85780826040516020016109909291906124c1565b604051602081830303815290604052925050506109b6565b6109b184611540565b925050505b919050565b6109c36110b6565b60006109ce826105f5565b905060006109db82610769565b90506001600860008282546109f09190612693565b9250508190555060006008549050610a0833826115a9565b610a1281836115c7565b7f176b02bb2d12439ff7a20b59f402cca16c76f50508b13ef3166a600eb719354a81604051610a419190612203565b60405180910390a150505050565b6000600560008473ffffffffffffffffffffffffffffffffffffffff1673ffffffffffffffffffffffffffffffffffffffff16815260200190815260200160002060008373ffffffffffffffffffffffffffffffffffffffff1673ffffffffffffffffffffffffffffffffffffffff16815260200190815260200160002060009054906101000a900460ff16905092915050565b610aeb6110b6565b600073ffffffffffffffffffffffffffffffffffffffff168173ffffffffffffffffffffffffffffffffffffffff1603610b5d5760006040517f1e4fbdf7000000000000000000000000000000000000000000000000000000008152600401610b549190611f6f565b60405180910390fd5b610b668161113d565b50565b60007f80ac58cd000000000000000000000000000000000000000000000000000000007bffffffffffffffffffffffffffffffffffffffffffffffffffffffff1916827bffffffffffffffffffffffffffffffffffffffffffffffffffffffff19161480610c3457507f5b5e139f000000000000000000000000000000000000000000000000000000007bffffffffffffffffffffffffffffffffffffffffffffffffffffffff1916827bffffffffffffffffffffffffffffffffffffffffffffffffffffffff1916145b80610c445750610c4382611623565b5b9050919050565b600080610c578361168d565b9050600073ffffffffffffffffffffffffffffffffffffffff168173ffffffffffffffffffffffffffffffffffffffff1603610cca57826040517f7e273289000000000000000000000000000000000000000000000000000000008152600401610cc19190612203565b60405180910390fd5b80915050919050565b60006004600083815260200190815260200160002060009054906101000a900473ffffffffffffffffffffffffffffffffffffffff169050919050565b600033905090565b610d2583838360016116ca565b505050565b600080610d368461168d565b9050600073ffffffffffffffffffffffffffffffffffffffff168373ffffffffffffffffffffffffffffffffffffffff1614610d7857610d7781848661188f565b5b600073ffffffffffffffffffffffffffffffffffffffff168173ffffffffffffffffffffffffffffffffffffffff1614610e0957610dba6000856000806116ca565b6001600360008373ffffffffffffffffffffffffffffffffffffffff1673ffffffffffffffffffffffffffffffffffffffff168152602001908152602001600020600082825403925050819055505b600073ffffffffffffffffffffffffffffffffffffffff168573ffffffffffffffffffffffffffffffffffffffff1614610e8c576001600360008773ffffffffffffffffffffffffffffffffffffffff1673ffffffffffffffffffffffffffffffffffffffff168152602001908152602001600020600082825401925050819055505b846002600086815260200190815260200160002060006101000a81548173ffffffffffffffffffffffffffffffffffffffff021916908373ffffffffffffffffffffffffffffffffffffffff160217905550838573ffffffffffffffffffffffffffffffffffffffff168273ffffffffffffffffffffffffffffffffffffffff167fddf252ad1be2c89b69c2b068fc378daa952ba7f163c4a11628f55a4df523b3ef60405160405180910390a4809150509392505050565b60606000825103610f66576040518060200160405280600081525090506110b1565b6000604051806060016040528060408152602001612af46040913990506000600360028551610f959190612693565b610f9f91906126f6565b6004610fab9190612727565b67ffffffffffffffff811115610fc457610fc3612053565b5b6040519080825280601f01601f191660200182016040528015610ff65781602001600182028036833780820191505090505b50905060018201602082018586518701602081018051600082525b8284101561106c576003840193508351603f8160121c168701518653600186019550603f81600c1c168701518653600186019550603f8160061c168701518653600186019550603f8116870151865360018601955050611011565b80825260038a510660018114611089576002811461109c576110a4565b603d6001870353603d60028703536110a4565b603d60018703535b5050505050505080925050505b919050565b6110be610d10565b73ffffffffffffffffffffffffffffffffffffffff166110dc6107b9565b73ffffffffffffffffffffffffffffffffffffffff161461113b576110ff610d10565b6040517f118cdaa70000000000000000000000000000000000000000000000000000000081526004016111329190611f6f565b60405180910390fd5b565b6000600760009054906101000a900473ffffffffffffffffffffffffffffffffffffffff16905081600760006101000a81548173ffffffffffffffffffffffffffffffffffffffff021916908373ffffffffffffffffffffffffffffffffffffffff1602179055508173ffffffffffffffffffffffffffffffffffffffff168173ffffffffffffffffffffffffffffffffffffffff167f8be0079c531659141344cd1fd0a4f28419497f9722a3daafe3b4186f6b6457e060405160405180910390a35050565b600073ffffffffffffffffffffffffffffffffffffffff168273ffffffffffffffffffffffffffffffffffffffff160361127457816040517f5b08ba1800000000000000000000000000000000000000000000000000000000815260040161126b9190611f6f565b60405180910390fd5b80600560008573ffffffffffffffffffffffffffffffffffffffff1673ffffffffffffffffffffffffffffffffffffffff16815260200190815260200160002060008473ffffffffffffffffffffffffffffffffffffffff1673ffffffffffffffffffffffffffffffffffffffff16815260200190815260200160002060006101000a81548160ff0219169083151502179055508173ffffffffffffffffffffffffffffffffffffffff168373ffffffffffffffffffffffffffffffffffffffff167f17307eab39ab6107e8899845ad3d59bd9653f200f220920489ca2b5937696c31836040516113659190611dfe565b60405180910390a3505050565b60008373ffffffffffffffffffffffffffffffffffffffff163b1115611523578273ffffffffffffffffffffffffffffffffffffffff1663150b7a026113b6610d10565b8685856040518563ffffffff1660e01b81526004016113d894939291906127be565b6020604051808303816000875af192505050801561141457506040513d601f19601f82011682018060405250810190611411919061281f565b60015b611498573d8060008114611444576040519150601f19603f3d011682016040523d82523d6000602084013e611449565b606091505b50600081510361149057836040517f64a0ae920000000000000000000000000000000000000000000000000000000081526004016114879190611f6f565b60405180910390fd5b805181602001fd5b63150b7a0260e01b7bffffffffffffffffffffffffffffffffffffffffffffffffffffffff1916817bffffffffffffffffffffffffffffffffffffffffffffffffffffffff19161461152157836040517f64a0ae920000000000000000000000000000000000000000000000000000000081526004016115189190611f6f565b60405180910390fd5b505b50505050565b606060405180602001604052806000815250905090565b606061154b82610c4b565b506000611556611529565b9050600081511161157657604051806020016040528060008152506115a1565b8061158084611953565b6040516020016115919291906124c1565b6040516020818303038152906040525b915050919050565b6115c3828260405180602001604052806000815250611a21565b5050565b806006600084815260200190815260200160002090816115e791906129f8565b507ff8e1a15aba9398e019f0b49df1a4fde98ee17ae345cb5f6b5e2c27f5033e8ce7826040516116179190612203565b60405180910390a15050565b60007f01ffc9a7000000000000000000000000000000000000000000000000000000007bffffffffffffffffffffffffffffffffffffffffffffffffffffffff1916827bffffffffffffffffffffffffffffffffffffffffffffffffffffffff1916149050919050565b60006002600083815260200190815260200160002060009054906101000a900473ffffffffffffffffffffffffffffffffffffffff169050919050565b80806117035750600073ffffffffffffffffffffffffffffffffffffffff168273ffffffffffffffffffffffffffffffffffffffff1614155b1561183757600061171384610c4b565b9050600073ffffffffffffffffffffffffffffffffffffffff168373ffffffffffffffffffffffffffffffffffffffff161415801561177e57508273ffffffffffffffffffffffffffffffffffffffff168173ffffffffffffffffffffffffffffffffffffffff1614155b8015611791575061178f8184610a4f565b155b156117d357826040517fa9fbf51f0000000000000000000000000000000000000000000000000000000081526004016117ca9190611f6f565b60405180910390fd5b811561183557838573ffffffffffffffffffffffffffffffffffffffff168273ffffffffffffffffffffffffffffffffffffffff167f8c5be1e5ebec7d5bd14f71427d1e84f3dd0314c0f7b2291e5b200ac8c7c3b92560405160405180910390a45b505b836004600085815260200190815260200160002060006101000a81548173ffffffffffffffffffffffffffffffffffffffff021916908373ffffffffffffffffffffffffffffffffffffffff16021790555050505050565b61189a838383611a3d565b61194e57600073ffffffffffffffffffffffffffffffffffffffff168373ffffffffffffffffffffffffffffffffffffffff160361190f57806040517f7e2732890000000000000000000000000000000000000000000000000000000081526004016119069190612203565b60405180910390fd5b81816040517f177e802f000000000000000000000000000000000000000000000000000000008152600401611945929190612aca565b60405180910390fd5b505050565b60606000600161196284611afe565b01905060008167ffffffffffffffff81111561198157611980612053565b5b6040519080825280601f01601f1916602001820160405280156119b35781602001600182028036833780820191505090505b509050600082602001820190505b600115611a16578080600190039150507f3031323334353637383961626364656600000000000000000000000000000000600a86061a8153600a8581611a0a57611a096126c7565b5b049450600085036119c1575b819350505050919050565b611a2b8383611c51565b611a386000848484611372565b505050565b60008073ffffffffffffffffffffffffffffffffffffffff168373ffffffffffffffffffffffffffffffffffffffff1614158015611af557508273ffffffffffffffffffffffffffffffffffffffff168473ffffffffffffffffffffffffffffffffffffffff161480611ab65750611ab58484610a4f565b5b80611af457508273ffffffffffffffffffffffffffffffffffffffff16611adc83610cd3565b73ffffffffffffffffffffffffffffffffffffffff16145b5b90509392505050565b600080600090507a184f03e93ff9f4daa797ed6e38ed64bf6a1f0100000000000000008310611b5c577a184f03e93ff9f4daa797ed6e38ed64bf6a1f0100000000000000008381611b5257611b516126c7565b5b0492506040810190505b6d04ee2d6d415b85acef81000000008310611b99576d04ee2d6d415b85acef81000000008381611b8f57611b8e6126c7565b5b0492506020810190505b662386f26fc100008310611bc857662386f26fc100008381611bbe57611bbd6126c7565b5b0492506010810190505b6305f5e1008310611bf1576305f5e1008381611be757611be66126c7565b5b0492506008810190505b6127108310611c16576127108381611c0c57611c0b6126c7565b5b0492506004810190505b60648310611c395760648381611c2f57611c2e6126c7565b5b0492506002810190505b600a8310611c48576001810190505b80915050919050565b600073ffffffffffffffffffffffffffffffffffffffff168273ffffffffffffffffffffffffffffffffffffffff1603611cc35760006040517f64a0ae92000000000000000000000000000000000000000000000000000000008152600401611cba9190611f6f565b60405180910390fd5b6000611cd183836000610d2a565b9050600073ffffffffffffffffffffffffffffffffffffffff168173ffffffffffffffffffffffffffffffffffffffff1614611d455760006040517f73c6ac6e000000000000000000000000000000000000000000000000000000008152600401611d3c9190611f6f565b60405180910390fd5b505050565b6000604051905090565b600080fd5b600080fd5b60007fffffffff0000000000000000000000000000000000000000000000000000000082169050919050565b611d9381611d5e565b8114611d9e57600080fd5b50565b600081359050611db081611d8a565b92915050565b600060208284031215611dcc57611dcb611d54565b5b6000611dda84828501611da1565b91505092915050565b60008115159050919050565b611df881611de3565b82525050565b6000602082019050611e136000830184611def565b92915050565b600081519050919050565b600082825260208201905092915050565b60005b83811015611e53578082015181840152602081019050611e38565b60008484015250505050565b6000601f19601f8301169050919050565b6000611e7b82611e19565b611e858185611e24565b9350611e95818560208601611e35565b611e9e81611e5f565b840191505092915050565b60006020820190508181036000830152611ec38184611e70565b905092915050565b6000819050919050565b611ede81611ecb565b8114611ee957600080fd5b50565b600081359050611efb81611ed5565b92915050565b600060208284031215611f1757611f16611d54565b5b6000611f2584828501611eec565b91505092915050565b600073ffffffffffffffffffffffffffffffffffffffff82169050919050565b6000611f5982611f2e565b9050919050565b611f6981611f4e565b82525050565b6000602082019050611f846000830184611f60565b92915050565b611f9381611f4e565b8114611f9e57600080fd5b50565b600081359050611fb081611f8a565b92915050565b60008060408385031215611fcd57611fcc611d54565b5b6000611fdb85828601611fa1565b9250506020611fec85828601611eec565b9150509250929050565b60008060006060848603121561200f5761200e611d54565b5b600061201d86828701611fa1565b935050602061202e86828701611fa1565b925050604061203f86828701611eec565b9150509250925092565b600080fd5b600080fd5b7f4e487b7100000000000000000000000000000000000000000000000000000000600052604160045260246000fd5b61208b82611e5f565b810181811067ffffffffffffffff821117156120aa576120a9612053565b5b80604052505050565b60006120bd611d4a565b90506120c98282612082565b919050565b600067ffffffffffffffff8211156120e9576120e8612053565b5b6120f282611e5f565b9050602081019050919050565b82818337600083830152505050565b600061212161211c846120ce565b6120b3565b90508281526020810184848401111561213d5761213c61204e565b5b6121488482856120ff565b509392505050565b600082601f83011261216557612164612049565b5b813561217584826020860161210e565b91505092915050565b60006020828403121561219457612193611d54565b5b600082013567ffffffffffffffff8111156121b2576121b1611d59565b5b6121be84828501612150565b91505092915050565b6000602082840312156121dd576121dc611d54565b5b60006121eb84828501611fa1565b91505092915050565b6121fd81611ecb565b82525050565b600060208201905061221860008301846121f4565b92915050565b61222781611de3565b811461223257600080fd5b50565b6000813590506122448161221e565b92915050565b6000806040838503121561226157612260611d54565b5b600061226f85828601611fa1565b925050602061228085828601612235565b9150509250929050565b600067ffffffffffffffff8211156122a5576122a4612053565b5b6122ae82611e5f565b9050602081019050919050565b60006122ce6122c98461228a565b6120b3565b9050828152602081018484840111156122ea576122e961204e565b5b6122f58482856120ff565b509392505050565b600082601f83011261231257612311612049565b5b81356123228482602086016122bb565b91505092915050565b6000806000806080858703121561234557612344611d54565b5b600061235387828801611fa1565b945050602061236487828801611fa1565b935050604061237587828801611eec565b925050606085013567ffffffffffffffff81111561239657612395611d59565b5b6123a2878288016122fd565b91505092959194509250565b600080604083850312156123c5576123c4611d54565b5b60006123d385828601611fa1565b92505060206123e485828601611fa1565b9150509250929050565b7f4e487b7100000000000000000000000000000000000000000000000000000000600052602260045260246000fd5b6000600282049050600182168061243557607f821691505b602082108103612448576124476123ee565b5b50919050565b60006060820190506124636000830186611f60565b61247060208301856121f4565b61247d6040830184611f60565b949350505050565b600081905092915050565b600061249b82611e19565b6124a58185612485565b93506124b5818560208601611e35565b80840191505092915050565b60006124cd8285612490565b91506124d98284612490565b91508190509392505050565b7f7b226e616d65223a202257454233435849204f4e2d434841494e222c2022646560008201527f736372697074696f6e223a2022412073696d706c65205356472062617365642060208201527f6f6e2d636861696e204e4654222c2022696d616765223a220000000000000000604082015250565b6000612567605883612485565b9150612572826124e5565b605882019050919050565b7f227d000000000000000000000000000000000000000000000000000000000000600082015250565b60006125b3600283612485565b91506125be8261257d565b600282019050919050565b60006125d48261255a565b91506125e08284612490565b91506125eb826125a6565b915081905092915050565b7f646174613a6170706c69636174696f6e2f6a736f6e3b6261736536342c000000600082015250565b600061262c601d83612485565b9150612637826125f6565b601d82019050919050565b600061264d8261261f565b91506126598284612490565b915081905092915050565b7f4e487b7100000000000000000000000000000000000000000000000000000000600052601160045260246000fd5b600061269e82611ecb565b91506126a983611ecb565b92508282019050808211156126c1576126c0612664565b5b92915050565b7f4e487b7100000000000000000000000000000000000000000000000000000000600052601260045260246000fd5b600061270182611ecb565b915061270c83611ecb565b92508261271c5761271b6126c7565b5b828204905092915050565b600061273282611ecb565b915061273d83611ecb565b925082820261274b81611ecb565b9150828204841483151761276257612761612664565b5b5092915050565b600081519050919050565b600082825260208201905092915050565b600061279082612769565b61279a8185612774565b93506127aa818560208601611e35565b6127b381611e5f565b840191505092915050565b60006080820190506127d36000830187611f60565b6127e06020830186611f60565b6127ed60408301856121f4565b81810360608301526127ff8184612785565b905095945050505050565b60008151905061281981611d8a565b92915050565b60006020828403121561283557612834611d54565b5b60006128438482850161280a565b91505092915050565b60008190508160005260206000209050919050565b60006020601f8301049050919050565b600082821b905092915050565b6000600883026128ae7fffffffffffffffffffffffffffffffffffffffffffffffffffffffffffffffff82612871565b6128b88683612871565b95508019841693508086168417925050509392505050565b6000819050919050565b60006128f56128f06128eb84611ecb565b6128d0565b611ecb565b9050919050565b6000819050919050565b61290f836128da565b61292361291b826128fc565b84845461287e565b825550505050565b600090565b61293861292b565b612943818484612906565b505050565b5b818110156129675761295c600082612930565b600181019050612949565b5050565b601f8211156129ac5761297d8161284c565b61298684612861565b81016020851015612995578190505b6129a96129a185612861565b830182612948565b50505b505050565b600082821c905092915050565b60006129cf600019846008026129b1565b1980831691505092915050565b60006129e883836129be565b9150826002028217905092915050565b612a0182611e19565b67ffffffffffffffff811115612a1a57612a19612053565b5b612a24825461241d565b612a2f82828561296b565b600060209050601f831160018114612a625760008415612a50578287015190505b612a5a85826129dc565b865550612ac2565b601f198416612a708661284c565b60005b82811015612a9857848901518255600182019150602085019450602081019050612a73565b86831015612ab55784890151612ab1601f8916826129be565b8355505b6001600288020188555050505b505050505050565b6000604082019050612adf6000830185611f60565b612aec60208301846121f4565b939250505056fe4142434445464748494a4b4c4d4e4f505152535455565758595a6162636465666768696a6b6c6d6e6f707172737475767778797a303132333435363738392b2fa2646970667358221220cfad652551525bfe282f1b7983c6d7776fc9eca9dde983d90a8da5bc53bf654f64736f6c63430008180033",
  "linkReferences": {},
  "deployedLinkReferences": {}
}